{
  "contractName": "EventManager",
  "abi": [
    {
      "inputs": [],
      "name": "COMMISSION",
      "outputs": [
        {
          "internalType": "uint256",
          "name": "",
          "type": "uint256"
        }
      ],
      "stateMutability": "view",
      "type": "function",
      "constant": true
    },
    {
      "inputs": [
        {
          "internalType": "uint256",
          "name": "",
          "type": "uint256"
        },
        {
          "internalType": "uint256",
          "name": "",
          "type": "uint256"
        }
      ],
      "name": "bets",
      "outputs": [
        {
          "internalType": "address",
          "name": "bettor",
          "type": "address"
        },
        {
          "internalType": "uint256",
          "name": "value",
          "type": "uint256"
        },
        {
          "internalType": "uint256",
          "name": "choice",
          "type": "uint256"
        }
      ],
      "stateMutability": "view",
      "type": "function",
      "constant": true
    },
    {
      "inputs": [],
      "name": "eventCount",
      "outputs": [
        {
          "internalType": "uint256",
          "name": "",
          "type": "uint256"
        }
      ],
      "stateMutability": "view",
      "type": "function",
      "constant": true
    },
    {
      "inputs": [
        {
          "internalType": "uint256",
          "name": "",
          "type": "uint256"
        }
      ],
      "name": "eventCreators",
      "outputs": [
        {
          "internalType": "address",
          "name": "",
          "type": "address"
        }
      ],
      "stateMutability": "view",
      "type": "function",
      "constant": true
    },
    {
      "inputs": [
        {
          "internalType": "uint256",
          "name": "",
          "type": "uint256"
        }
      ],
      "name": "events",
      "outputs": [
        {
          "internalType": "string",
          "name": "name",
          "type": "string"
        },
        {
          "internalType": "uint256",
          "name": "totalFor",
          "type": "uint256"
        },
        {
          "internalType": "uint256",
          "name": "totalAgainst",
          "type": "uint256"
        },
        {
          "internalType": "bool",
          "name": "closed",
          "type": "bool"
        },
        {
          "internalType": "uint256",
          "name": "result",
          "type": "uint256"
        },
        {
          "internalType": "uint256",
          "name": "endTimestamp",
          "type": "uint256"
        }
      ],
      "stateMutability": "view",
      "type": "function",
      "constant": true
    },
    {
      "inputs": [
        {
          "internalType": "string",
          "name": "_name",
          "type": "string"
        },
        {
          "internalType": "uint256",
          "name": "_endTimestamp",
          "type": "uint256"
        }
      ],
      "name": "createEvent",
      "outputs": [],
      "stateMutability": "nonpayable",
      "type": "function"
    },
    {
      "inputs": [
        {
          "internalType": "uint256",
          "name": "_eventId",
          "type": "uint256"
        }
      ],
      "name": "resolveBets",
      "outputs": [],
      "stateMutability": "nonpayable",
      "type": "function"
    },
    {
      "inputs": [
        {
          "internalType": "uint256",
          "name": "_eventId",
          "type": "uint256"
        }
      ],
      "name": "closeEvent",
      "outputs": [],
      "stateMutability": "nonpayable",
      "type": "function"
    },
    {
      "inputs": [
        {
          "internalType": "uint256",
          "name": "_eventId",
          "type": "uint256"
        }
      ],
      "name": "getEventCreator",
      "outputs": [
        {
          "internalType": "address",
          "name": "",
          "type": "address"
        }
      ],
      "stateMutability": "view",
      "type": "function",
      "constant": true
    },
    {
      "inputs": [],
      "name": "getOpenEvents",
      "outputs": [
        {
          "components": [
            {
              "internalType": "uint256",
              "name": "eventId",
              "type": "uint256"
            },
            {
              "internalType": "string",
              "name": "name",
              "type": "string"
            },
            {
              "internalType": "uint256",
              "name": "totalFor",
              "type": "uint256"
            },
            {
              "internalType": "uint256",
              "name": "totalAgainst",
              "type": "uint256"
            },
            {
              "internalType": "bool",
              "name": "closed",
              "type": "bool"
            },
            {
              "internalType": "uint256",
              "name": "result",
              "type": "uint256"
            },
            {
              "internalType": "uint256",
              "name": "endTimestamp",
              "type": "uint256"
            }
          ],
          "internalType": "struct EventManager.EventWithId[]",
          "name": "",
          "type": "tuple[]"
        }
      ],
      "stateMutability": "view",
      "type": "function",
      "constant": true
    },
    {
      "inputs": [],
      "name": "getMyEvents",
      "outputs": [
        {
          "components": [
            {
              "internalType": "uint256",
              "name": "eventId",
              "type": "uint256"
            },
            {
              "internalType": "string",
              "name": "name",
              "type": "string"
            },
            {
              "internalType": "uint256",
              "name": "totalFor",
              "type": "uint256"
            },
            {
              "internalType": "uint256",
              "name": "totalAgainst",
              "type": "uint256"
            },
            {
              "internalType": "bool",
              "name": "closed",
              "type": "bool"
            },
            {
              "internalType": "uint256",
              "name": "result",
              "type": "uint256"
            },
            {
              "internalType": "uint256",
              "name": "endTimestamp",
              "type": "uint256"
            }
          ],
          "internalType": "struct EventManager.EventWithId[]",
          "name": "",
          "type": "tuple[]"
        }
      ],
      "stateMutability": "view",
      "type": "function",
      "constant": true
    },
    {
      "inputs": [],
      "name": "getMyBets",
      "outputs": [
        {
          "components": [
            {
              "internalType": "uint256",
              "name": "eventId",
              "type": "uint256"
            },
            {
              "internalType": "string",
              "name": "name",
              "type": "string"
            },
            {
              "internalType": "uint256",
              "name": "totalFor",
              "type": "uint256"
            },
            {
              "internalType": "uint256",
              "name": "totalAgainst",
              "type": "uint256"
            },
            {
              "internalType": "bool",
              "name": "closed",
              "type": "bool"
            },
            {
              "internalType": "uint256",
              "name": "result",
              "type": "uint256"
            },
            {
              "internalType": "uint256",
              "name": "endTimestamp",
              "type": "uint256"
            }
          ],
          "internalType": "struct EventManager.EventWithId[]",
          "name": "",
          "type": "tuple[]"
        }
      ],
      "stateMutability": "view",
      "type": "function",
      "constant": true
    },
    {
      "inputs": [
        {
          "internalType": "uint256",
          "name": "_eventId",
          "type": "uint256"
        },
        {
          "internalType": "uint256",
          "name": "_choice",
          "type": "uint256"
        }
      ],
      "name": "placeBet",
      "outputs": [],
      "stateMutability": "payable",
      "type": "function",
      "payable": true
    }
  ],
  "bytecode": "0x6080604052600060025534801561001557600080fd5b5061253a806100256000396000f3fe6080604052600436106100c25760003560e01c80636a09f6be1161007f5780637905090411610059578063790509041461027457806395fa6c501461029f57806399535bd7146102dc5780639a4d438514610307576100c2565b80636a09f6be146101cd5780636c7f0d4e1461020c57806371be2e4a14610249576100c2565b80630b791430146100c75780632ee07c00146101095780632fa0a115146101325780633548124b1461015b5780634afe62b514610186578063562df3d5146101a2575b600080fd5b3480156100d357600080fd5b506100ee60048036038101906100e991906116ba565b610330565b604051610100969594939291906117a1565b60405180910390f35b34801561011557600080fd5b50610130600480360381019061012b91906116ba565b610401565b005b34801561013e57600080fd5b50610159600480360381019061015491906116ba565b6105fa565b005b34801561016757600080fd5b506101706108c2565b60405161017d91906119cf565b60405180910390f35b6101a0600480360381019061019b91906119f1565b610bd4565b005b3480156101ae57600080fd5b506101b7610df6565b6040516101c49190611a31565b60405180910390f35b3480156101d957600080fd5b506101f460048036038101906101ef91906119f1565b610dfb565b60405161020393929190611a8d565b60405180910390f35b34801561021857600080fd5b50610233600480360381019061022e91906116ba565b610e62565b6040516102409190611ac4565b60405180910390f35b34801561025557600080fd5b5061025e610e9f565b60405161026b9190611a31565b60405180910390f35b34801561028057600080fd5b50610289610ea5565b60405161029691906119cf565b60405180910390f35b3480156102ab57600080fd5b506102c660048036038101906102c191906116ba565b611178565b6040516102d39190611ac4565b60405180910390f35b3480156102e857600080fd5b506102f16111ab565b6040516102fe91906119cf565b60405180910390f35b34801561031357600080fd5b5061032e60048036038101906103299190611c14565b611519565b005b600060205280600052604060002060009150905080600001805461035390611c9f565b80601f016020809104026020016040519081016040528092919081815260200182805461037f90611c9f565b80156103cc5780601f106103a1576101008083540402835291602001916103cc565b820191906000526020600020905b8154815290600101906020018083116103af57829003601f168201915b5050505050908060010154908060020154908060030160009054906101000a900460ff16908060040154908060050154905086565b60008082815260200190815260200160002060030160009054906101000a900460ff1615610464576040517f08c379a000000000000000000000000000000000000000000000000000000000815260040161045b90611d1c565b60405180910390fd5b6001600082815260200190815260200160002060009054906101000a900473ffffffffffffffffffffffffffffffffffffffff1673ffffffffffffffffffffffffffffffffffffffff163373ffffffffffffffffffffffffffffffffffffffff1614610505576040517f08c379a00000000000000000000000000000000000000000000000000000000081526004016104fc90611dae565b60405180910390fd5b6000808281526020019081526020016000206005015442101561055d576040517f08c379a000000000000000000000000000000000000000000000000000000000815260040161055490611e40565b60405180910390fd5b6000600160024233604051602001610576929190611ec9565b6040516020818303038152906040528051906020012060001c6105999190611f24565b6105a39190611f84565b90508060008084815260200190815260200160002060040181905550600160008084815260200190815260200160002060030160006101000a81548160ff0219169083151502179055506105f6826105fa565b5050565b6000806000838152602001908152602001600020905060008083815260200190815260200160002060030160009054906101000a900460ff16610672576040517f08c379a000000000000000000000000000000000000000000000000000000000815260040161066990612004565b60405180910390fd5b6000816004015490506000826002015483600101546106919190611f84565b90506000600183146106a75783600201546106ad565b83600101545b905060006106ba86610e62565b905060008203610715578073ffffffffffffffffffffffffffffffffffffffff166108fc849081150290604051600060405180830381858888f1935050505015801561070a573d6000803e3d6000fd5b5050505050506108bf565b600060646005856107269190612024565b6107309190612066565b9050600081856107409190612097565b90506000670de0b6b3a76400009050600085828461075e9190612024565b6107689190612066565b90508473ffffffffffffffffffffffffffffffffffffffff166108fc859081150290604051600060405180830381858888f193505050501580156107b0573d6000803e3d6000fd5b5060005b600360008c8152602001908152602001600020805490508110156108b4576000600360008d815260200190815260200160002082815481106107f9576107f86120cb565b5b90600052602060002090600302019050898160020154036108a0576000848483600101546108279190612024565b6108319190612066565b90508160000160009054906101000a900473ffffffffffffffffffffffffffffffffffffffff1673ffffffffffffffffffffffffffffffffffffffff166108fc829081150290604051600060405180830381858888f1935050505015801561089d573d6000803e3d6000fd5b50505b5080806108ac906120fa565b9150506107b4565b505050505050505050505b50565b6060600060025467ffffffffffffffff8111156108e2576108e1611ae9565b5b60405190808252806020026020018201604052801561091b57816020015b610908611631565b8152602001906001900390816109005790505b5090506000805b600254811015610b1a573373ffffffffffffffffffffffffffffffffffffffff166001600083815260200190815260200160002060009054906101000a900473ffffffffffffffffffffffffffffffffffffffff1673ffffffffffffffffffffffffffffffffffffffff1603610b07576040518060e0016040528082815260200160008084815260200190815260200160002060000180546109c390611c9f565b80601f01602080910402602001604051908101604052809291908181526020018280546109ef90611c9f565b8015610a3c5780601f10610a1157610100808354040283529160200191610a3c565b820191906000526020600020905b815481529060010190602001808311610a1f57829003601f168201915b5050505050815260200160008084815260200190815260200160002060010154815260200160008084815260200190815260200160002060020154815260200160008084815260200190815260200160002060030160009054906101000a900460ff161515815260200160008084815260200190815260200160002060040154815260200160008084815260200190815260200160002060050154815250838381518110610aed57610aec6120cb565b5b60200260200101819052508180610b03906120fa565b9250505b8080610b12906120fa565b915050610922565b5060008167ffffffffffffffff811115610b3757610b36611ae9565b5b604051908082528060200260200182016040528015610b7057816020015b610b5d611631565b815260200190600190039081610b555790505b50905060005b82811015610bca57838181518110610b9157610b906120cb565b5b6020026020010151828281518110610bac57610bab6120cb565b5b60200260200101819052508080610bc2906120fa565b915050610b76565b5080935050505090565b60003411610c17576040517f08c379a0000000000000000000000000000000000000000000000000000000008152600401610c0e9061218e565b60405180910390fd5b60008083815260200190815260200160002060030160009054906101000a900460ff1615610c7a576040517f08c379a0000000000000000000000000000000000000000000000000000000008152600401610c71906121fa565b60405180910390fd5b6003600083815260200190815260200160002060405180606001604052803373ffffffffffffffffffffffffffffffffffffffff16815260200134815260200183815250908060018154018082558091505060019003906000526020600020906003020160009091909190915060008201518160000160006101000a81548173ffffffffffffffffffffffffffffffffffffffff021916908373ffffffffffffffffffffffffffffffffffffffff1602179055506020820151816001015560408201518160020155505060018103610d7d57346000808481526020019081526020016000206001016000828254610d719190611f84565b92505081905550610df2565b60028103610db657346000808481526020019081526020016000206002016000828254610daa9190611f84565b92505081905550610df1565b6040517f08c379a0000000000000000000000000000000000000000000000000000000008152600401610de890612266565b60405180910390fd5b5b5050565b600581565b60036020528160005260406000208181548110610e1757600080fd5b9060005260206000209060030201600091509150508060000160009054906101000a900473ffffffffffffffffffffffffffffffffffffffff16908060010154908060020154905083565b60006001600083815260200190815260200160002060009054906101000a900473ffffffffffffffffffffffffffffffffffffffff169050919050565b60025481565b6060600060025467ffffffffffffffff811115610ec557610ec4611ae9565b5b604051908082528060200260200182016040528015610efe57816020015b610eeb611631565b815260200190600190039081610ee35790505b5090506000805b6002548110156110be5760008082815260200190815260200160002060030160009054906101000a900460ff166110ab576040518060e001604052808281526020016000808481526020019081526020016000206000018054610f6790611c9f565b80601f0160208091040260200160405190810160405280929190818152602001828054610f9390611c9f565b8015610fe05780601f10610fb557610100808354040283529160200191610fe0565b820191906000526020600020905b815481529060010190602001808311610fc357829003601f168201915b5050505050815260200160008084815260200190815260200160002060010154815260200160008084815260200190815260200160002060020154815260200160008084815260200190815260200160002060030160009054906101000a900460ff161515815260200160008084815260200190815260200160002060040154815260200160008084815260200190815260200160002060050154815250838381518110611091576110906120cb565b5b602002602001018190525081806110a7906120fa565b9250505b80806110b6906120fa565b915050610f05565b5060008167ffffffffffffffff8111156110db576110da611ae9565b5b60405190808252806020026020018201604052801561111457816020015b611101611631565b8152602001906001900390816110f95790505b50905060005b8281101561116e57838181518110611135576111346120cb565b5b60200260200101518282815181106111505761114f6120cb565b5b60200260200101819052508080611166906120fa565b91505061111a565b5080935050505090565b60016020528060005260406000206000915054906101000a900473ffffffffffffffffffffffffffffffffffffffff1681565b6060600060025467ffffffffffffffff8111156111cb576111ca611ae9565b5b60405190808252806020026020018201604052801561120457816020015b6111f1611631565b8152602001906001900390816111e95790505b5090506000805b60025481101561145f5760005b600360008381526020019081526020016000208054905081101561144b573373ffffffffffffffffffffffffffffffffffffffff16600360008481526020019081526020016000208281548110611272576112716120cb565b5b906000526020600020906003020160000160009054906101000a900473ffffffffffffffffffffffffffffffffffffffff1673ffffffffffffffffffffffffffffffffffffffff1603611438576040518060e0016040528083815260200160008085815260200190815260200160002060000180546112f090611c9f565b80601f016020809104026020016040519081016040528092919081815260200182805461131c90611c9f565b80156113695780601f1061133e57610100808354040283529160200191611369565b820191906000526020600020905b81548152906001019060200180831161134c57829003601f168201915b5050505050815260200160008085815260200190815260200160002060010154815260200160008085815260200190815260200160002060020154815260200160008085815260200190815260200160002060030160009054906101000a900460ff16151581526020016000808581526020019081526020016000206004015481526020016000808581526020019081526020016000206005015481525084848151811061141a576114196120cb565b5b60200260200101819052508280611430906120fa565b93505061144b565b8080611443906120fa565b915050611218565b508080611457906120fa565b91505061120b565b5060008167ffffffffffffffff81111561147c5761147b611ae9565b5b6040519080825280602002602001820160405280156114b557816020015b6114a2611631565b81526020019060019003908161149a5790505b50905060005b8281101561150f578381815181106114d6576114d56120cb565b5b60200260200101518282815181106114f1576114f06120cb565b5b60200260200101819052508080611507906120fa565b9150506114bb565b5080935050505090565b6040518060c0016040528083815260200160008152602001600081526020016000151581526020016000815260200182815250600080600254815260200190815260200160002060008201518160000190816115759190612432565b50602082015181600101556040820151816002015560608201518160030160006101000a81548160ff0219169083151502179055506080820151816004015560a082015181600501559050503360016000600254815260200190815260200160002060006101000a81548173ffffffffffffffffffffffffffffffffffffffff021916908373ffffffffffffffffffffffffffffffffffffffff16021790555060026000815480929190611628906120fa565b91905055505050565b6040518060e001604052806000815260200160608152602001600081526020016000815260200160001515815260200160008152602001600081525090565b6000604051905090565b600080fd5b600080fd5b6000819050919050565b61169781611684565b81146116a257600080fd5b50565b6000813590506116b48161168e565b92915050565b6000602082840312156116d0576116cf61167a565b5b60006116de848285016116a5565b91505092915050565b600081519050919050565b600082825260208201905092915050565b60005b83811015611721578082015181840152602081019050611706565b60008484015250505050565b6000601f19601f8301169050919050565b6000611749826116e7565b61175381856116f2565b9350611763818560208601611703565b61176c8161172d565b840191505092915050565b61178081611684565b82525050565b60008115159050919050565b61179b81611786565b82525050565b600060c08201905081810360008301526117bb818961173e565b90506117ca6020830188611777565b6117d76040830187611777565b6117e46060830186611792565b6117f16080830185611777565b6117fe60a0830184611777565b979650505050505050565b600081519050919050565b600082825260208201905092915050565b6000819050602082019050919050565b61183e81611684565b82525050565b600082825260208201905092915050565b6000611860826116e7565b61186a8185611844565b935061187a818560208601611703565b6118838161172d565b840191505092915050565b61189781611786565b82525050565b600060e0830160008301516118b56000860182611835565b50602083015184820360208601526118cd8282611855565b91505060408301516118e26040860182611835565b5060608301516118f56060860182611835565b506080830151611908608086018261188e565b5060a083015161191b60a0860182611835565b5060c083015161192e60c0860182611835565b508091505092915050565b6000611945838361189d565b905092915050565b6000602082019050919050565b600061196582611809565b61196f8185611814565b93508360208202850161198185611825565b8060005b858110156119bd578484038952815161199e8582611939565b94506119a98361194d565b925060208a01995050600181019050611985565b50829750879550505050505092915050565b600060208201905081810360008301526119e9818461195a565b905092915050565b60008060408385031215611a0857611a0761167a565b5b6000611a16858286016116a5565b9250506020611a27858286016116a5565b9150509250929050565b6000602082019050611a466000830184611777565b92915050565b600073ffffffffffffffffffffffffffffffffffffffff82169050919050565b6000611a7782611a4c565b9050919050565b611a8781611a6c565b82525050565b6000606082019050611aa26000830186611a7e565b611aaf6020830185611777565b611abc6040830184611777565b949350505050565b6000602082019050611ad96000830184611a7e565b92915050565b600080fd5b600080fd5b7f4e487b7100000000000000000000000000000000000000000000000000000000600052604160045260246000fd5b611b218261172d565b810181811067ffffffffffffffff82111715611b4057611b3f611ae9565b5b80604052505050565b6000611b53611670565b9050611b5f8282611b18565b919050565b600067ffffffffffffffff821115611b7f57611b7e611ae9565b5b611b888261172d565b9050602081019050919050565b82818337600083830152505050565b6000611bb7611bb284611b64565b611b49565b905082815260208101848484011115611bd357611bd2611ae4565b5b611bde848285611b95565b509392505050565b600082601f830112611bfb57611bfa611adf565b5b8135611c0b848260208601611ba4565b91505092915050565b60008060408385031215611c2b57611c2a61167a565b5b600083013567ffffffffffffffff811115611c4957611c4861167f565b5b611c5585828601611be6565b9250506020611c66858286016116a5565b9150509250929050565b7f4e487b7100000000000000000000000000000000000000000000000000000000600052602260045260246000fd5b60006002820490506001821680611cb757607f821691505b602082108103611cca57611cc9611c70565b5b50919050565b7f4576656e746f206a61206665636861646f000000000000000000000000000000600082015250565b6000611d066011836116f2565b9150611d1182611cd0565b602082019050919050565b60006020820190508181036000830152611d3581611cf9565b9050919050565b7f4170656e6173206f2063726961646f7220646f206576656e746f20706f64652060008201527f6665636861720000000000000000000000000000000000000000000000000000602082015250565b6000611d986026836116f2565b9150611da382611d3c565b604082019050919050565b60006020820190508181036000830152611dc781611d8b565b9050919050565b7f4576656e746f2061696e6461206e616f20706f64652073657220656e6365727260008201527f61646f0000000000000000000000000000000000000000000000000000000000602082015250565b6000611e2a6023836116f2565b9150611e3582611dce565b604082019050919050565b60006020820190508181036000830152611e5981611e1d565b9050919050565b6000819050919050565b611e7b611e7682611684565b611e60565b82525050565b60008160601b9050919050565b6000611e9982611e81565b9050919050565b6000611eab82611e8e565b9050919050565b611ec3611ebe82611a6c565b611ea0565b82525050565b6000611ed58285611e6a565b602082019150611ee58284611eb2565b6014820191508190509392505050565b7f4e487b7100000000000000000000000000000000000000000000000000000000600052601260045260246000fd5b6000611f2f82611684565b9150611f3a83611684565b925082611f4a57611f49611ef5565b5b828206905092915050565b7f4e487b7100000000000000000000000000000000000000000000000000000000600052601160045260246000fd5b6000611f8f82611684565b9150611f9a83611684565b9250828201905080821115611fb257611fb1611f55565b5b92915050565b7f4576656e746f2061696e6461206e616f20656e6365727261646f000000000000600082015250565b6000611fee601a836116f2565b9150611ff982611fb8565b602082019050919050565b6000602082019050818103600083015261201d81611fe1565b9050919050565b600061202f82611684565b915061203a83611684565b925082820261204881611684565b9150828204841483151761205f5761205e611f55565b5b5092915050565b600061207182611684565b915061207c83611684565b92508261208c5761208b611ef5565b5b828204905092915050565b60006120a282611684565b91506120ad83611684565b92508282039050818111156120c5576120c4611f55565b5b92915050565b7f4e487b7100000000000000000000000000000000000000000000000000000000600052603260045260246000fd5b600061210582611684565b91507fffffffffffffffffffffffffffffffffffffffffffffffffffffffffffffffff820361213757612136611f55565b5b600182019050919050565b7f446576652073657220656e766961646f20657468657265756d00000000000000600082015250565b60006121786019836116f2565b915061218382612142565b602082019050919050565b600060208201905081810360008301526121a78161216b565b9050919050565b7f4576656e746f206665636861646f000000000000000000000000000000000000600082015250565b60006121e4600e836116f2565b91506121ef826121ae565b602082019050919050565b60006020820190508181036000830152612213816121d7565b9050919050565b7f4573636f6c686120696e76616c69646100000000000000000000000000000000600082015250565b60006122506010836116f2565b915061225b8261221a565b602082019050919050565b6000602082019050818103600083015261227f81612243565b9050919050565b60008190508160005260206000209050919050565b60006020601f8301049050919050565b600082821b905092915050565b6000600883026122e87fffffffffffffffffffffffffffffffffffffffffffffffffffffffffffffffff826122ab565b6122f286836122ab565b95508019841693508086168417925050509392505050565b6000819050919050565b600061232f61232a61232584611684565b61230a565b611684565b9050919050565b6000819050919050565b61234983612314565b61235d61235582612336565b8484546122b8565b825550505050565b600090565b612372612365565b61237d818484612340565b505050565b5b818110156123a15761239660008261236a565b600181019050612383565b5050565b601f8211156123e6576123b781612286565b6123c08461229b565b810160208510156123cf578190505b6123e36123db8561229b565b830182612382565b50505b505050565b600082821c905092915050565b6000612409600019846008026123eb565b1980831691505092915050565b600061242283836123f8565b9150826002028217905092915050565b61243b826116e7565b67ffffffffffffffff81111561245457612453611ae9565b5b61245e8254611c9f565b6124698282856123a5565b600060209050601f83116001811461249c576000841561248a578287015190505b6124948582612416565b8655506124fc565b601f1984166124aa86612286565b60005b828110156124d2578489015182556001820191506020850194506020810190506124ad565b868310156124ef57848901516124eb601f8916826123f8565b8355505b6001600288020188555050505b50505050505056fea264697066735822122081423059e61a536bce0e8a38e4a3ce467925fc05c519fd83263952f5c8d36b1564736f6c63430008110033",
  "immutableReferences": {},
  "source": "// SPDX-License-Identifier: MIT\r\npragma solidity ^0.8.17;\r\n\r\ncontract EventManager {\r\n    uint256 public constant COMMISSION = 5; // 5% do valor apostado no evento vai para o criador\r\n\r\n    struct Event {\r\n        string name; // Nome do evento\r\n        uint256 totalFor; // Total de apostas a favor\r\n        uint256 totalAgainst; // Total de apostas contra\r\n        bool closed; // Evento fechado ou no\r\n        uint256 result; // 0 for \"open\", 1 for \"for\", 2 for \"against\"\r\n        uint256 endTimestamp; // Timestamp de encerramento do evento\r\n    }\r\n    // Apenas para visualizao\r\n    struct EventWithId {\r\n        uint256 eventId;\r\n        string name;\r\n        uint256 totalFor;\r\n        uint256 totalAgainst;\r\n        bool closed;\r\n        uint256 result;\r\n        uint256 endTimestamp;\r\n    }\r\n\r\n    mapping(uint256 => Event) public events; // Mapping/Dicionrio de eventos (ID: event)\r\n    mapping(uint256 => address) public eventCreators; // Criador de cada evento\r\n    uint256 public eventCount = 0;\r\n\r\n    struct Bet {\r\n        address bettor;\r\n        uint256 value;\r\n        uint256 choice; // 1 ou 2\r\n    }\r\n\r\n    // Dicionrio de eventos com uma lista de apostas {eventId: [Bet1, Bet2, ...]}\r\n    mapping(uint256 => Bet[]) public bets;\r\n\r\n    // Funo para criao de evento (adicionando-o ao dicionrio)\r\n    function createEvent(string memory _name, uint256 _endTimestamp) public {\r\n        events[eventCount] = Event(_name, 0, 0, false, 0, _endTimestamp);\r\n        eventCreators[eventCount] = msg.sender; // Armazena o criador do evento\r\n        eventCount++;\r\n    }\r\n\r\n    // Funo de distribuio de valores aps finalizao do evento\r\n    function resolveBets(uint256 _eventId) public {\r\n        Event storage eventDetails = events[_eventId];\r\n        require(events[_eventId].closed, \"Evento ainda nao encerrado\");\r\n\r\n        uint256 winningChoice = eventDetails.result;\r\n        uint256 totalPool = eventDetails.totalFor + eventDetails.totalAgainst;\r\n        uint256 winningPool = (winningChoice == 1)\r\n            ? eventDetails.totalFor\r\n            : eventDetails.totalAgainst;\r\n\r\n        // Pega o criador do evento pelo event id\r\n        address creatorEvent = getEventCreator(_eventId);\r\n\r\n        // Caso no haja apostas na escolha vencedora\r\n        if (winningPool == 0) {\r\n            // Transfere todo o saldo do evento ao criador\r\n            payable(creatorEvent).transfer(totalPool);\r\n            return; // Finaliza a execuo\r\n        }\r\n\r\n        uint256 creatorCommission = (totalPool * COMMISSION) / 100;\r\n        uint256 rewardPool = totalPool - creatorCommission;\r\n\r\n        // Defina uma constante de preciso\r\n        uint256 PRECISION = 1e18;\r\n\r\n        // Multiplique antes de dividir para manter a preciso\r\n        uint256 rewardPerUnit = (rewardPool * PRECISION) / winningPool;\r\n\r\n        // Paga o criador do evento a comisso\r\n        payable(creatorEvent).transfer(creatorCommission);\r\n\r\n        // Distribui as recompensas para os vencedores\r\n        for (uint256 i = 0; i < bets[_eventId].length; i++) {\r\n            Bet storage userBet = bets[_eventId][i];\r\n            if (userBet.choice == winningChoice) {\r\n                // Multiplique o valor da aposta pelo rewardPerUnit e divida pela preciso\r\n                uint256 reward = (userBet.value * rewardPerUnit) / PRECISION;\r\n                payable(userBet.bettor).transfer(reward);\r\n            }\r\n        }\r\n    }\r\n\r\n    // Funo para encerrar um evento e registrar o resultado\r\n    function closeEvent(uint256 _eventId) public {\r\n        require(!events[_eventId].closed, \"Evento ja fechado\");\r\n        require(\r\n            msg.sender == eventCreators[_eventId],\r\n            \"Apenas o criador do evento pode fechar\"\r\n        );\r\n        require(\r\n            block.timestamp >= events[_eventId].endTimestamp,\r\n            \"Evento ainda nao pode ser encerrado\"\r\n        );\r\n\r\n        // Sorteio do resultado\r\n        uint256 random = (uint256(\r\n            keccak256(abi.encodePacked(block.timestamp, msg.sender))\r\n        ) % 2) + 1;\r\n\r\n        events[_eventId].result = random;\r\n        events[_eventId].closed = true;\r\n        resolveBets(_eventId);\r\n    }\r\n\r\n    // Funo para consultar o criador de um evento\r\n    function getEventCreator(uint256 _eventId) public view returns (address) {\r\n        return eventCreators[_eventId];\r\n    }\r\n\r\n    // Funo para obter todos os eventos abertos\r\n    function getOpenEvents() public view returns (EventWithId[] memory) {\r\n        EventWithId[] memory openEvents = new EventWithId[](eventCount);\r\n        uint256 openEventCount = 0;\r\n\r\n        for (uint256 i = 0; i < eventCount; i++) {\r\n            if (!events[i].closed) {\r\n                openEvents[openEventCount] = EventWithId({\r\n                    eventId: i,\r\n                    name: events[i].name,\r\n                    totalFor: events[i].totalFor,\r\n                    totalAgainst: events[i].totalAgainst,\r\n                    closed: events[i].closed,\r\n                    result: events[i].result,\r\n                    endTimestamp: events[i].endTimestamp\r\n                });\r\n                openEventCount++;\r\n            }\r\n        }\r\n\r\n        // Redimensionar o array para o nmero real de eventos abertos\r\n        EventWithId[] memory result = new EventWithId[](openEventCount);\r\n        for (uint256 i = 0; i < openEventCount; i++) {\r\n            result[i] = openEvents[i];\r\n        }\r\n\r\n        return result;\r\n    }\r\n\r\n    // Funo para obter todos os eventos que criei (como criador)\r\n    function getMyEvents() public view returns (EventWithId[] memory) {\r\n        EventWithId[] memory myEvents = new EventWithId[](eventCount);\r\n        uint256 myEventCount = 0;\r\n\r\n        for (uint256 i = 0; i < eventCount; i++) {\r\n            if (eventCreators[i] == msg.sender) {\r\n                myEvents[myEventCount] = EventWithId({\r\n                    eventId: i,\r\n                    name: events[i].name,\r\n                    totalFor: events[i].totalFor,\r\n                    totalAgainst: events[i].totalAgainst,\r\n                    closed: events[i].closed,\r\n                    result: events[i].result,\r\n                    endTimestamp: events[i].endTimestamp\r\n                });\r\n                myEventCount++;\r\n            }\r\n        }\r\n\r\n        // Redimensionar o array para o nmero real de eventos criados pelo usurio\r\n        EventWithId[] memory result = new EventWithId[](myEventCount);\r\n        for (uint256 i = 0; i < myEventCount; i++) {\r\n            result[i] = myEvents[i];\r\n        }\r\n\r\n        return result;\r\n    }\r\n\r\n    // Funo para obter os eventos em que apostei\r\n    function getMyBets() public view returns (EventWithId[] memory) {\r\n        EventWithId[] memory myBets = new EventWithId[](eventCount);\r\n        uint256 myBetCount = 0;\r\n\r\n        for (uint256 i = 0; i < eventCount; i++) {\r\n            for (uint256 j = 0; j < bets[i].length; j++) {\r\n                if (bets[i][j].bettor == msg.sender) {\r\n                    myBets[myBetCount] = EventWithId({\r\n                        eventId: i,\r\n                        name: events[i].name,\r\n                        totalFor: events[i].totalFor,\r\n                        totalAgainst: events[i].totalAgainst,\r\n                        closed: events[i].closed,\r\n                        result: events[i].result,\r\n                        endTimestamp: events[i].endTimestamp\r\n                    });\r\n                    myBetCount++;\r\n                    break;\r\n                }\r\n            }\r\n        }\r\n\r\n        // Redimensionar o array para o nmero real de eventos apostados pelo usurio\r\n        EventWithId[] memory result = new EventWithId[](myBetCount);\r\n        for (uint256 i = 0; i < myBetCount; i++) {\r\n            result[i] = myBets[i];\r\n        }\r\n\r\n        return result;\r\n    }\r\n\r\n    // Funo em que o usurio insere o valor (aposta) em um evento\r\n    function placeBet(uint256 _eventId, uint256 _choice) public payable {\r\n        require(msg.value > 0, \"Deve ser enviado ethereum\"); // Precisa enviar ether\r\n        require(!events[_eventId].closed, \"Evento fechado\"); // Evento fechado\r\n\r\n        bets[_eventId].push(Bet(msg.sender, msg.value, _choice));\r\n\r\n        // Se a escolha for a primeira\r\n        if (_choice == 1) {\r\n            events[_eventId].totalFor += msg.value;\r\n            // Se a escolha for a segunda\r\n        } else if (_choice == 2) {\r\n            events[_eventId].totalAgainst += msg.value;\r\n        } else {\r\n            revert(\"Escolha invalida\");\r\n        }\r\n    }\r\n}\r\n",
  "sourcePath": "C:\\Users\\gabri\\Documents\\PBL\\Bet-Distribuida\\servidor\\contracts\\EventManager.sol",
  "compiler": {
    "name": "solc",
    "version": "0.8.17+commit.8df45f5f.Emscripten.clang"
  },
  "schemaVersion": "3.4.16",
  "updatedAt": "2024-12-12T02:36:56.208Z",
  "networkType": "ethereum",
  "devdoc": {
    "kind": "dev",
    "methods": {},
    "version": 1
  },
  "userdoc": {
    "kind": "user",
    "methods": {},
    "version": 1
  }
}