{
  "contractName": "Betting",
  "abi": [
    {
      "inputs": [],
      "name": "COMMISSION",
      "outputs": [
        {
          "internalType": "uint256",
          "name": "",
          "type": "uint256"
        }
      ],
      "stateMutability": "view",
      "type": "function",
      "constant": true
    },
    {
      "inputs": [
        {
          "internalType": "uint256",
          "name": "",
          "type": "uint256"
        },
        {
          "internalType": "uint256",
          "name": "",
          "type": "uint256"
        }
      ],
      "name": "bets",
      "outputs": [
        {
          "internalType": "address",
          "name": "bettor",
          "type": "address"
        },
        {
          "internalType": "uint256",
          "name": "value",
          "type": "uint256"
        },
        {
          "internalType": "uint256",
          "name": "choice",
          "type": "uint256"
        }
      ],
      "stateMutability": "view",
      "type": "function",
      "constant": true
    },
    {
      "inputs": [
        {
          "internalType": "uint256",
          "name": "_eventId",
          "type": "uint256"
        },
        {
          "internalType": "uint256",
          "name": "_result",
          "type": "uint256"
        }
      ],
      "name": "closeEvent",
      "outputs": [],
      "stateMutability": "nonpayable",
      "type": "function"
    },
    {
      "inputs": [
        {
          "internalType": "string",
          "name": "_name",
          "type": "string"
        }
      ],
      "name": "createEvent",
      "outputs": [],
      "stateMutability": "nonpayable",
      "type": "function"
    },
    {
      "inputs": [],
      "name": "eventCount",
      "outputs": [
        {
          "internalType": "uint256",
          "name": "",
          "type": "uint256"
        }
      ],
      "stateMutability": "view",
      "type": "function",
      "constant": true
    },
    {
      "inputs": [
        {
          "internalType": "uint256",
          "name": "",
          "type": "uint256"
        }
      ],
      "name": "eventCreators",
      "outputs": [
        {
          "internalType": "address",
          "name": "",
          "type": "address"
        }
      ],
      "stateMutability": "view",
      "type": "function",
      "constant": true
    },
    {
      "inputs": [
        {
          "internalType": "uint256",
          "name": "",
          "type": "uint256"
        }
      ],
      "name": "events",
      "outputs": [
        {
          "internalType": "string",
          "name": "name",
          "type": "string"
        },
        {
          "internalType": "uint256",
          "name": "totalFor",
          "type": "uint256"
        },
        {
          "internalType": "uint256",
          "name": "totalAgainst",
          "type": "uint256"
        },
        {
          "internalType": "bool",
          "name": "closed",
          "type": "bool"
        },
        {
          "internalType": "uint256",
          "name": "result",
          "type": "uint256"
        }
      ],
      "stateMutability": "view",
      "type": "function",
      "constant": true
    },
    {
      "inputs": [
        {
          "internalType": "uint256",
          "name": "_eventId",
          "type": "uint256"
        }
      ],
      "name": "getEventCreator",
      "outputs": [
        {
          "internalType": "address",
          "name": "",
          "type": "address"
        }
      ],
      "stateMutability": "view",
      "type": "function",
      "constant": true
    },
    {
      "inputs": [
        {
          "internalType": "uint256",
          "name": "_eventId",
          "type": "uint256"
        },
        {
          "internalType": "uint256",
          "name": "_choice",
          "type": "uint256"
        }
      ],
      "name": "placeBet",
      "outputs": [],
      "stateMutability": "payable",
      "type": "function",
      "payable": true
    },
    {
      "inputs": [
        {
          "internalType": "uint256",
          "name": "_eventId",
          "type": "uint256"
        }
      ],
      "name": "resolveBets",
      "outputs": [],
      "stateMutability": "nonpayable",
      "type": "function"
    }
  ],
  "bytecode": "0x6080604052600060025534801561001557600080fd5b50611556806100256000396000f3fe6080604052600436106100915760003560e01c80636a09f6be116100595780636a09f6be146101705780636c7f0d4e146101af57806371be2e4a146101ec57806395fa6c50146102175780639bc2bc711461025457610091565b80630b791430146100965780631d40a813146100d75780632fa0a115146101005780634afe62b514610129578063562df3d514610145575b600080fd5b3480156100a257600080fd5b506100bd60048036038101906100b89190610ac9565b61027d565b6040516100ce959493929190610bb0565b60405180910390f35b3480156100e357600080fd5b506100fe60048036038101906100f99190610c0a565b610348565b005b34801561010c57600080fd5b5061012760048036038101906101229190610ac9565b6103f7565b005b610143600480360381019061013e9190610c0a565b610674565b005b34801561015157600080fd5b5061015a610896565b6040516101679190610c4a565b60405180910390f35b34801561017c57600080fd5b5061019760048036038101906101929190610c0a565b61089b565b6040516101a693929190610ca6565b60405180910390f35b3480156101bb57600080fd5b506101d660048036038101906101d19190610ac9565b610902565b6040516101e39190610cdd565b60405180910390f35b3480156101f857600080fd5b5061020161093f565b60405161020e9190610c4a565b60405180910390f35b34801561022357600080fd5b5061023e60048036038101906102399190610ac9565b610945565b60405161024b9190610cdd565b60405180910390f35b34801561026057600080fd5b5061027b60048036038101906102769190610e2d565b610978565b005b60006020528060005260406000206000915090508060000180546102a090610ea5565b80601f01602080910402602001604051908101604052809291908181526020018280546102cc90610ea5565b80156103195780601f106102ee57610100808354040283529160200191610319565b820191906000526020600020905b8154815290600101906020018083116102fc57829003601f168201915b5050505050908060010154908060020154908060030160009054906101000a900460ff16908060040154905085565b60008083815260200190815260200160002060030160009054906101000a900460ff16156103ab576040517f08c379a00000000000000000000000000000000000000000000000000000000081526004016103a290610f22565b60405180910390fd5b600160008084815260200190815260200160002060030160006101000a81548160ff02191690831515021790555080600080848152602001908152602001600020600401819055505050565b6000806000838152602001908152602001600020905060008083815260200190815260200160002060030160009054906101000a900460ff1661046f576040517f08c379a000000000000000000000000000000000000000000000000000000000815260040161046690610f8e565b60405180910390fd5b6000816004015490506000670de0b6b3a7640000836002015484600101546104979190610fdd565b6104a19190611040565b90506000600183146104ca57670de0b6b3a764000084600201546104c59190611040565b6104e3565b670de0b6b3a764000084600101546104e29190611040565b5b90506000606460056104f59190611040565b836105009190611071565b90506000818461051091906110b3565b9050600083826105209190611040565b9050600061052d89610902565b90508073ffffffffffffffffffffffffffffffffffffffff166108fc859081150290604051600060405180830381858888f19350505050158015610575573d6000803e3d6000fd5b5060005b600360008b815260200190815260200160002080549050811015610668576000600360008c815260200190815260200160002082815481106105be576105bd6110e7565b5b9060005260206000209060030201905088816002015403610654578060000160009054906101000a900473ffffffffffffffffffffffffffffffffffffffff1673ffffffffffffffffffffffffffffffffffffffff166108fc8583600101546106279190611071565b9081150290604051600060405180830381858888f19350505050158015610652573d6000803e3d6000fd5b505b50808061066090611116565b915050610579565b50505050505050505050565b600034116106b7576040517f08c379a00000000000000000000000000000000000000000000000000000000081526004016106ae906111aa565b60405180910390fd5b60008083815260200190815260200160002060030160009054906101000a900460ff161561071a576040517f08c379a000000000000000000000000000000000000000000000000000000000815260040161071190611216565b60405180910390fd5b6003600083815260200190815260200160002060405180606001604052803373ffffffffffffffffffffffffffffffffffffffff16815260200134815260200183815250908060018154018082558091505060019003906000526020600020906003020160009091909190915060008201518160000160006101000a81548173ffffffffffffffffffffffffffffffffffffffff021916908373ffffffffffffffffffffffffffffffffffffffff160217905550602082015181600101556040820151816002015550506001810361081d573460008084815260200190815260200160002060010160008282546108119190610fdd565b92505081905550610892565b600281036108565734600080848152602001908152602001600020600201600082825461084a9190610fdd565b92505081905550610891565b6040517f08c379a000000000000000000000000000000000000000000000000000000000815260040161088890611282565b60405180910390fd5b5b5050565b600581565b600360205281600052604060002081815481106108b757600080fd5b9060005260206000209060030201600091509150508060000160009054906101000a900473ffffffffffffffffffffffffffffffffffffffff16908060010154908060020154905083565b60006001600083815260200190815260200160002060009054906101000a900473ffffffffffffffffffffffffffffffffffffffff169050919050565b60025481565b60016020528060005260406000206000915054906101000a900473ffffffffffffffffffffffffffffffffffffffff1681565b6040518060a0016040528082815260200160008152602001600081526020016000151581526020016000815250600080600254815260200190815260200160002060008201518160000190816109ce919061144e565b50602082015181600101556040820151816002015560608201518160030160006101000a81548160ff021916908315150217905550608082015181600401559050503360016000600254815260200190815260200160002060006101000a81548173ffffffffffffffffffffffffffffffffffffffff021916908373ffffffffffffffffffffffffffffffffffffffff16021790555060026000815480929190610a7790611116565b919050555050565b6000604051905090565b600080fd5b600080fd5b6000819050919050565b610aa681610a93565b8114610ab157600080fd5b50565b600081359050610ac381610a9d565b92915050565b600060208284031215610adf57610ade610a89565b5b6000610aed84828501610ab4565b91505092915050565b600081519050919050565b600082825260208201905092915050565b60005b83811015610b30578082015181840152602081019050610b15565b60008484015250505050565b6000601f19601f8301169050919050565b6000610b5882610af6565b610b628185610b01565b9350610b72818560208601610b12565b610b7b81610b3c565b840191505092915050565b610b8f81610a93565b82525050565b60008115159050919050565b610baa81610b95565b82525050565b600060a0820190508181036000830152610bca8188610b4d565b9050610bd96020830187610b86565b610be66040830186610b86565b610bf36060830185610ba1565b610c006080830184610b86565b9695505050505050565b60008060408385031215610c2157610c20610a89565b5b6000610c2f85828601610ab4565b9250506020610c4085828601610ab4565b9150509250929050565b6000602082019050610c5f6000830184610b86565b92915050565b600073ffffffffffffffffffffffffffffffffffffffff82169050919050565b6000610c9082610c65565b9050919050565b610ca081610c85565b82525050565b6000606082019050610cbb6000830186610c97565b610cc86020830185610b86565b610cd56040830184610b86565b949350505050565b6000602082019050610cf26000830184610c97565b92915050565b600080fd5b600080fd5b7f4e487b7100000000000000000000000000000000000000000000000000000000600052604160045260246000fd5b610d3a82610b3c565b810181811067ffffffffffffffff82111715610d5957610d58610d02565b5b80604052505050565b6000610d6c610a7f565b9050610d788282610d31565b919050565b600067ffffffffffffffff821115610d9857610d97610d02565b5b610da182610b3c565b9050602081019050919050565b82818337600083830152505050565b6000610dd0610dcb84610d7d565b610d62565b905082815260208101848484011115610dec57610deb610cfd565b5b610df7848285610dae565b509392505050565b600082601f830112610e1457610e13610cf8565b5b8135610e24848260208601610dbd565b91505092915050565b600060208284031215610e4357610e42610a89565b5b600082013567ffffffffffffffff811115610e6157610e60610a8e565b5b610e6d84828501610dff565b91505092915050565b7f4e487b7100000000000000000000000000000000000000000000000000000000600052602260045260246000fd5b60006002820490506001821680610ebd57607f821691505b602082108103610ed057610ecf610e76565b5b50919050565b7f4576656e746f206a61206665636861646f000000000000000000000000000000600082015250565b6000610f0c601183610b01565b9150610f1782610ed6565b602082019050919050565b60006020820190508181036000830152610f3b81610eff565b9050919050565b7f4576656e746f2061696e6461206e616f20656e6365727261646f000000000000600082015250565b6000610f78601a83610b01565b9150610f8382610f42565b602082019050919050565b60006020820190508181036000830152610fa781610f6b565b9050919050565b7f4e487b7100000000000000000000000000000000000000000000000000000000600052601160045260246000fd5b6000610fe882610a93565b9150610ff383610a93565b925082820190508082111561100b5761100a610fae565b5b92915050565b7f4e487b7100000000000000000000000000000000000000000000000000000000600052601260045260246000fd5b600061104b82610a93565b915061105683610a93565b92508261106657611065611011565b5b828204905092915050565b600061107c82610a93565b915061108783610a93565b925082820261109581610a93565b915082820484148315176110ac576110ab610fae565b5b5092915050565b60006110be82610a93565b91506110c983610a93565b92508282039050818111156110e1576110e0610fae565b5b92915050565b7f4e487b7100000000000000000000000000000000000000000000000000000000600052603260045260246000fd5b600061112182610a93565b91507fffffffffffffffffffffffffffffffffffffffffffffffffffffffffffffffff820361115357611152610fae565b5b600182019050919050565b7f446576652073657220656e766961646f20657468657265756d00000000000000600082015250565b6000611194601983610b01565b915061119f8261115e565b602082019050919050565b600060208201905081810360008301526111c381611187565b9050919050565b7f4576656e746f206665636861646f000000000000000000000000000000000000600082015250565b6000611200600e83610b01565b915061120b826111ca565b602082019050919050565b6000602082019050818103600083015261122f816111f3565b9050919050565b7f4573636f6c686120696e76616c69646100000000000000000000000000000000600082015250565b600061126c601083610b01565b915061127782611236565b602082019050919050565b6000602082019050818103600083015261129b8161125f565b9050919050565b60008190508160005260206000209050919050565b60006020601f8301049050919050565b600082821b905092915050565b6000600883026113047fffffffffffffffffffffffffffffffffffffffffffffffffffffffffffffffff826112c7565b61130e86836112c7565b95508019841693508086168417925050509392505050565b6000819050919050565b600061134b61134661134184610a93565b611326565b610a93565b9050919050565b6000819050919050565b61136583611330565b61137961137182611352565b8484546112d4565b825550505050565b600090565b61138e611381565b61139981848461135c565b505050565b5b818110156113bd576113b2600082611386565b60018101905061139f565b5050565b601f821115611402576113d3816112a2565b6113dc846112b7565b810160208510156113eb578190505b6113ff6113f7856112b7565b83018261139e565b50505b505050565b600082821c905092915050565b600061142560001984600802611407565b1980831691505092915050565b600061143e8383611414565b9150826002028217905092915050565b61145782610af6565b67ffffffffffffffff8111156114705761146f610d02565b5b61147a8254610ea5565b6114858282856113c1565b600060209050601f8311600181146114b857600084156114a6578287015190505b6114b08582611432565b865550611518565b601f1984166114c6866112a2565b60005b828110156114ee578489015182556001820191506020850194506020810190506114c9565b8683101561150b5784890151611507601f891682611414565b8355505b6001600288020188555050505b50505050505056fea2646970667358221220b21c7cd1678ebe9b7a914dc99f27c81d7636bcd8e3265ec560fa77ca9eadba0b64736f6c63430008110033",
  "immutableReferences": {},
  "source": "// SPDX-License-Identifier: MIT\r\npragma solidity ^0.8.0;\r\n\r\nimport \"./EventManager.sol\";\r\n\r\ncontract Betting is EventManager {\r\n\r\n    struct Bet {\r\n        address bettor;\r\n        uint256 value;\r\n        uint256 choice; // 1 ou 2\r\n    }\r\n\r\n    // Dicionrio de eventos com uma lista de apostas {eventId: [Bet1, Bet2, ...]}\r\n    mapping(uint256 => Bet[]) public bets;\r\n\r\n    // Funo em que o usurio insere o valor (aposta) em um evento\r\n    function placeBet(uint256 _eventId, uint256 _choice) public payable {\r\n        require(msg.value > 0, \"Deve ser enviado ethereum\"); // Precisa enviar ether\r\n        require(!events[_eventId].closed, \"Evento fechado\"); // Evento fechado\r\n\r\n        bets[_eventId].push(Bet(msg.sender, msg.value, _choice));\r\n\r\n        // Se a escolha for a primeira\r\n        if (_choice == 1) {\r\n            events[_eventId].totalFor += msg.value;\r\n        // Se a escolha for a segunda\r\n        } else if (_choice == 2){\r\n            events[_eventId].totalAgainst += msg.value;\r\n        } else {\r\n            revert(\"Escolha invalida\");\r\n        }\r\n    }\r\n\r\n    // Funo de distribuio de valores aps finalizao do evento\r\n    function resolveBets(uint256 _eventId) public {\r\n        Event storage eventDetails = events[_eventId];\r\n        require(events[_eventId].closed, \"Evento ainda nao encerrado\");\r\n\r\n        // Pegar o resultado do evento\r\n        uint256 winningChoice = eventDetails.result;\r\n        // Pegar o valor total em apostas para o evento\r\n        uint256 totalPool =(eventDetails.totalFor + eventDetails.totalAgainst) / 1 ether;\r\n        // Pegar o valor total em apostas para o resultado vencedor\r\n        uint256 winningPool = (winningChoice == 1) ? (eventDetails.totalFor / 1 ether) : (eventDetails.totalAgainst / 1 ether);\r\n\r\n        // Calcula o valor da comisso do criador do evento\r\n        uint256 creatorCommission = totalPool * (COMMISSION / 100);\r\n        // Calcula o valor total restante para distribuir\r\n        uint256 rewardPool = totalPool - creatorCommission;\r\n        // Calcula o multiplicador de odds para o resultado vencedor\r\n        uint256 rewardPerUnit = rewardPool / winningPool; // Odds\r\n        // Pegar o criador do evento pelo event id\r\n        address creatorEvent = getEventCreator(_eventId);\r\n\r\n        // Paga o criador do evento a comisso\r\n        payable(creatorEvent).transfer(creatorCommission);\r\n\r\n        // Distribui as recompensas para os vencedores\r\n        for (uint256 i = 0; i < bets[_eventId].length; i++) {\r\n            Bet storage userBet = bets[_eventId][i];\r\n            if (userBet.choice == winningChoice) {\r\n                payable(userBet.bettor).transfer(userBet.value * rewardPerUnit);\r\n            }\r\n        }\r\n    }\r\n\r\n}\r\n",
  "sourcePath": "C:\\Users\\Gabriel Almeida\\Documents\\PBL\\Bet-Distribuida\\contracts\\Betting.sol",
  "compiler": {
    "name": "solc",
    "version": "0.8.17+commit.8df45f5f.Emscripten.clang"
  },
  "schemaVersion": "3.4.16",
  "updatedAt": "2024-12-09T00:23:41.595Z",
  "networkType": "ethereum",
  "devdoc": {
    "kind": "dev",
    "methods": {},
    "version": 1
  },
  "userdoc": {
    "kind": "user",
    "methods": {},
    "version": 1
  }
}