{
  "contractName": "EventManager",
  "abi": [
    {
      "inputs": [],
      "name": "COMMISSION",
      "outputs": [
        {
          "internalType": "uint256",
          "name": "",
          "type": "uint256"
        }
      ],
      "stateMutability": "view",
      "type": "function",
      "constant": true
    },
    {
      "inputs": [],
      "name": "eventCount",
      "outputs": [
        {
          "internalType": "uint256",
          "name": "",
          "type": "uint256"
        }
      ],
      "stateMutability": "view",
      "type": "function",
      "constant": true
    },
    {
      "inputs": [
        {
          "internalType": "uint256",
          "name": "",
          "type": "uint256"
        }
      ],
      "name": "eventCreators",
      "outputs": [
        {
          "internalType": "address",
          "name": "",
          "type": "address"
        }
      ],
      "stateMutability": "view",
      "type": "function",
      "constant": true
    },
    {
      "inputs": [
        {
          "internalType": "uint256",
          "name": "",
          "type": "uint256"
        }
      ],
      "name": "events",
      "outputs": [
        {
          "internalType": "string",
          "name": "name",
          "type": "string"
        },
        {
          "internalType": "uint256",
          "name": "totalFor",
          "type": "uint256"
        },
        {
          "internalType": "uint256",
          "name": "totalAgainst",
          "type": "uint256"
        },
        {
          "internalType": "bool",
          "name": "closed",
          "type": "bool"
        },
        {
          "internalType": "uint256",
          "name": "result",
          "type": "uint256"
        }
      ],
      "stateMutability": "view",
      "type": "function",
      "constant": true
    },
    {
      "inputs": [
        {
          "internalType": "string",
          "name": "_name",
          "type": "string"
        }
      ],
      "name": "createEvent",
      "outputs": [],
      "stateMutability": "nonpayable",
      "type": "function"
    },
    {
      "inputs": [
        {
          "internalType": "uint256",
          "name": "_eventId",
          "type": "uint256"
        },
        {
          "internalType": "uint256",
          "name": "_result",
          "type": "uint256"
        }
      ],
      "name": "closeEvent",
      "outputs": [],
      "stateMutability": "nonpayable",
      "type": "function"
    },
    {
      "inputs": [
        {
          "internalType": "uint256",
          "name": "_eventId",
          "type": "uint256"
        }
      ],
      "name": "getEventCreator",
      "outputs": [
        {
          "internalType": "address",
          "name": "",
          "type": "address"
        }
      ],
      "stateMutability": "view",
      "type": "function",
      "constant": true
    }
  ],
  "bytecode": "0x6080604052600060025534801561001557600080fd5b50610c3d806100256000396000f3fe608060405234801561001057600080fd5b506004361061007d5760003560e01c80636c7f0d4e1161005b5780636c7f0d4e146100f057806371be2e4a1461012057806395fa6c501461013e5780639bc2bc711461016e5761007d565b80630b791430146100825780631d40a813146100b6578063562df3d5146100d2575b600080fd5b61009c600480360381019061009791906104d0565b61018a565b6040516100ad9594939291906105b7565b60405180910390f35b6100d060048036038101906100cb9190610611565b610255565b005b6100da610304565b6040516100e79190610651565b60405180910390f35b61010a600480360381019061010591906104d0565b610309565b60405161011791906106ad565b60405180910390f35b610128610346565b6040516101359190610651565b60405180910390f35b610158600480360381019061015391906104d0565b61034c565b60405161016591906106ad565b60405180910390f35b610188600480360381019061018391906107fd565b61037f565b005b60006020528060005260406000206000915090508060000180546101ad90610875565b80601f01602080910402602001604051908101604052809291908181526020018280546101d990610875565b80156102265780601f106101fb57610100808354040283529160200191610226565b820191906000526020600020905b81548152906001019060200180831161020957829003601f168201915b5050505050908060010154908060020154908060030160009054906101000a900460ff16908060040154905085565b60008083815260200190815260200160002060030160009054906101000a900460ff16156102b8576040517f08c379a00000000000000000000000000000000000000000000000000000000081526004016102af906108f2565b60405180910390fd5b600160008084815260200190815260200160002060030160006101000a81548160ff02191690831515021790555080600080848152602001908152602001600020600401819055505050565b600581565b60006001600083815260200190815260200160002060009054906101000a900473ffffffffffffffffffffffffffffffffffffffff169050919050565b60025481565b60016020528060005260406000206000915054906101000a900473ffffffffffffffffffffffffffffffffffffffff1681565b6040518060a0016040528082815260200160008152602001600081526020016000151581526020016000815250600080600254815260200190815260200160002060008201518160000190816103d59190610abe565b50602082015181600101556040820151816002015560608201518160030160006101000a81548160ff021916908315150217905550608082015181600401559050503360016000600254815260200190815260200160002060006101000a81548173ffffffffffffffffffffffffffffffffffffffff021916908373ffffffffffffffffffffffffffffffffffffffff1602179055506002600081548092919061047e90610bbf565b919050555050565b6000604051905090565b600080fd5b600080fd5b6000819050919050565b6104ad8161049a565b81146104b857600080fd5b50565b6000813590506104ca816104a4565b92915050565b6000602082840312156104e6576104e5610490565b5b60006104f4848285016104bb565b91505092915050565b600081519050919050565b600082825260208201905092915050565b60005b8381101561053757808201518184015260208101905061051c565b60008484015250505050565b6000601f19601f8301169050919050565b600061055f826104fd565b6105698185610508565b9350610579818560208601610519565b61058281610543565b840191505092915050565b6105968161049a565b82525050565b60008115159050919050565b6105b18161059c565b82525050565b600060a08201905081810360008301526105d18188610554565b90506105e0602083018761058d565b6105ed604083018661058d565b6105fa60608301856105a8565b610607608083018461058d565b9695505050505050565b6000806040838503121561062857610627610490565b5b6000610636858286016104bb565b9250506020610647858286016104bb565b9150509250929050565b6000602082019050610666600083018461058d565b92915050565b600073ffffffffffffffffffffffffffffffffffffffff82169050919050565b60006106978261066c565b9050919050565b6106a78161068c565b82525050565b60006020820190506106c2600083018461069e565b92915050565b600080fd5b600080fd5b7f4e487b7100000000000000000000000000000000000000000000000000000000600052604160045260246000fd5b61070a82610543565b810181811067ffffffffffffffff82111715610729576107286106d2565b5b80604052505050565b600061073c610486565b90506107488282610701565b919050565b600067ffffffffffffffff821115610768576107676106d2565b5b61077182610543565b9050602081019050919050565b82818337600083830152505050565b60006107a061079b8461074d565b610732565b9050828152602081018484840111156107bc576107bb6106cd565b5b6107c784828561077e565b509392505050565b600082601f8301126107e4576107e36106c8565b5b81356107f484826020860161078d565b91505092915050565b60006020828403121561081357610812610490565b5b600082013567ffffffffffffffff81111561083157610830610495565b5b61083d848285016107cf565b91505092915050565b7f4e487b7100000000000000000000000000000000000000000000000000000000600052602260045260246000fd5b6000600282049050600182168061088d57607f821691505b6020821081036108a05761089f610846565b5b50919050565b7f4576656e746f206a61206665636861646f000000000000000000000000000000600082015250565b60006108dc601183610508565b91506108e7826108a6565b602082019050919050565b6000602082019050818103600083015261090b816108cf565b9050919050565b60008190508160005260206000209050919050565b60006020601f8301049050919050565b600082821b905092915050565b6000600883026109747fffffffffffffffffffffffffffffffffffffffffffffffffffffffffffffffff82610937565b61097e8683610937565b95508019841693508086168417925050509392505050565b6000819050919050565b60006109bb6109b66109b18461049a565b610996565b61049a565b9050919050565b6000819050919050565b6109d5836109a0565b6109e96109e1826109c2565b848454610944565b825550505050565b600090565b6109fe6109f1565b610a098184846109cc565b505050565b5b81811015610a2d57610a226000826109f6565b600181019050610a0f565b5050565b601f821115610a7257610a4381610912565b610a4c84610927565b81016020851015610a5b578190505b610a6f610a6785610927565b830182610a0e565b50505b505050565b600082821c905092915050565b6000610a9560001984600802610a77565b1980831691505092915050565b6000610aae8383610a84565b9150826002028217905092915050565b610ac7826104fd565b67ffffffffffffffff811115610ae057610adf6106d2565b5b610aea8254610875565b610af5828285610a31565b600060209050601f831160018114610b285760008415610b16578287015190505b610b208582610aa2565b865550610b88565b601f198416610b3686610912565b60005b82811015610b5e57848901518255600182019150602085019450602081019050610b39565b86831015610b7b5784890151610b77601f891682610a84565b8355505b6001600288020188555050505b505050505050565b7f4e487b7100000000000000000000000000000000000000000000000000000000600052601160045260246000fd5b6000610bca8261049a565b91507fffffffffffffffffffffffffffffffffffffffffffffffffffffffffffffffff8203610bfc57610bfb610b90565b5b60018201905091905056fea26469706673582212204796a7ac05a405f8483903fbf1d63a2aaa297b4e96e83726ed4ee559747a04c464736f6c63430008110033",
  "immutableReferences": {},
  "source": "// SPDX-License-Identifier: MIT\r\npragma solidity ^0.8.0;\r\n\r\ncontract EventManager {\r\n    struct Event {\r\n        string name; // Nome do evento\r\n        uint256 totalFor; // Total de apostas a favor\r\n        uint256 totalAgainst; // Total de apostas contra\r\n        bool closed; // Evento fechado ou no\r\n        uint256 result; // 0 for \"open\", 1 for \"for\", 2 for \"against\"\r\n    }\r\n\r\n    mapping(uint256 => Event) public events; // Mapping/Dicionrio de eventos (ID: event)\r\n    mapping(uint256 => address) public eventCreators; // Criador de cada evento\r\n    uint256 public eventCount = 0;\r\n    uint256 public constant COMMISSION = 5; // 5% do valor apostado no evento vai para o criador\r\n\r\n    // Funo para criao de evento (adicionando-o ao dicionrio)\r\n    function createEvent(string memory _name) public {\r\n        events[eventCount] = Event(\r\n            _name,\r\n            0,\r\n            0,\r\n            false,\r\n            0\r\n        );\r\n        eventCreators[eventCount] = msg.sender; // Armazena o criador do evento\r\n        eventCount++;\r\n    }\r\n\r\n    // Funo para encerrar um evento e registrar o resultado\r\n    function closeEvent(uint256 _eventId, uint256 _result) public {\r\n        require(!events[_eventId].closed, \"Evento ja fechado\");\r\n        events[_eventId].closed = true;\r\n        events[_eventId].result = _result;\r\n    }\r\n\r\n    // Funo para consultar o criador de um evento\r\n    function getEventCreator(uint256 _eventId) public view returns (address) {\r\n        return eventCreators[_eventId];\r\n    }\r\n}",
  "sourcePath": "C:\\Users\\Gabriel Almeida\\Documents\\PBL\\Bet-Distribuida\\contracts\\EventManager.sol",
  "compiler": {
    "name": "solc",
    "version": "0.8.17+commit.8df45f5f.Emscripten.clang"
  },
  "schemaVersion": "3.4.16",
  "updatedAt": "2024-12-09T00:23:41.589Z",
  "networkType": "ethereum",
  "devdoc": {
    "kind": "dev",
    "methods": {},
    "version": 1
  },
  "userdoc": {
    "kind": "user",
    "methods": {},
    "version": 1
  }
}