{
  "contractName": "EventManager",
  "abi": [
    {
      "inputs": [],
      "name": "COMMISSION",
      "outputs": [
        {
          "internalType": "uint256",
          "name": "",
          "type": "uint256"
        }
      ],
      "stateMutability": "view",
      "type": "function",
      "constant": true
    },
    {
      "inputs": [
        {
          "internalType": "uint256",
          "name": "",
          "type": "uint256"
        },
        {
          "internalType": "uint256",
          "name": "",
          "type": "uint256"
        }
      ],
      "name": "bets",
      "outputs": [
        {
          "internalType": "address",
          "name": "bettor",
          "type": "address"
        },
        {
          "internalType": "uint256",
          "name": "value",
          "type": "uint256"
        },
        {
          "internalType": "uint256",
          "name": "choice",
          "type": "uint256"
        }
      ],
      "stateMutability": "view",
      "type": "function",
      "constant": true
    },
    {
      "inputs": [],
      "name": "eventCount",
      "outputs": [
        {
          "internalType": "uint256",
          "name": "",
          "type": "uint256"
        }
      ],
      "stateMutability": "view",
      "type": "function",
      "constant": true
    },
    {
      "inputs": [
        {
          "internalType": "uint256",
          "name": "",
          "type": "uint256"
        }
      ],
      "name": "eventCreators",
      "outputs": [
        {
          "internalType": "address",
          "name": "",
          "type": "address"
        }
      ],
      "stateMutability": "view",
      "type": "function",
      "constant": true
    },
    {
      "inputs": [
        {
          "internalType": "uint256",
          "name": "",
          "type": "uint256"
        }
      ],
      "name": "events",
      "outputs": [
        {
          "internalType": "string",
          "name": "name",
          "type": "string"
        },
        {
          "internalType": "uint256",
          "name": "totalFor",
          "type": "uint256"
        },
        {
          "internalType": "uint256",
          "name": "totalAgainst",
          "type": "uint256"
        },
        {
          "internalType": "bool",
          "name": "closed",
          "type": "bool"
        },
        {
          "internalType": "uint256",
          "name": "result",
          "type": "uint256"
        },
        {
          "internalType": "uint256",
          "name": "endTimestamp",
          "type": "uint256"
        }
      ],
      "stateMutability": "view",
      "type": "function",
      "constant": true
    },
    {
      "inputs": [
        {
          "internalType": "string",
          "name": "_name",
          "type": "string"
        },
        {
          "internalType": "uint256",
          "name": "_endTimestamp",
          "type": "uint256"
        }
      ],
      "name": "createEvent",
      "outputs": [],
      "stateMutability": "nonpayable",
      "type": "function"
    },
    {
      "inputs": [
        {
          "internalType": "uint256",
          "name": "_eventId",
          "type": "uint256"
        }
      ],
      "name": "resolveBets",
      "outputs": [],
      "stateMutability": "nonpayable",
      "type": "function"
    },
    {
      "inputs": [
        {
          "internalType": "uint256",
          "name": "_eventId",
          "type": "uint256"
        }
      ],
      "name": "closeEvent",
      "outputs": [],
      "stateMutability": "nonpayable",
      "type": "function"
    },
    {
      "inputs": [
        {
          "internalType": "uint256",
          "name": "_eventId",
          "type": "uint256"
        }
      ],
      "name": "getEventCreator",
      "outputs": [
        {
          "internalType": "address",
          "name": "",
          "type": "address"
        }
      ],
      "stateMutability": "view",
      "type": "function",
      "constant": true
    },
    {
      "inputs": [
        {
          "internalType": "uint256",
          "name": "_eventId",
          "type": "uint256"
        },
        {
          "internalType": "uint256",
          "name": "_choice",
          "type": "uint256"
        }
      ],
      "name": "placeBet",
      "outputs": [],
      "stateMutability": "payable",
      "type": "function",
      "payable": true
    }
  ],
  "bytecode": "0x6080604052600060025534801561001557600080fd5b5061187c806100256000396000f3fe6080604052600436106100915760003560e01c80636a09f6be116100595780636a09f6be146101715780636c7f0d4e146101b057806371be2e4a146101ed57806395fa6c50146102185780639a4d43851461025557610091565b80630b791430146100965780632ee07c00146100d85780632fa0a115146101015780634afe62b51461012a578063562df3d514610146575b600080fd5b3480156100a257600080fd5b506100bd60048036038101906100b89190610c76565b61027e565b6040516100cf96959493929190610d5d565b60405180910390f35b3480156100e457600080fd5b506100ff60048036038101906100fa9190610c76565b61034f565b005b34801561010d57600080fd5b5061012860048036038101906101239190610c76565b610548565b005b610144600480360381019061013f9190610dc5565b610810565b005b34801561015257600080fd5b5061015b610a32565b6040516101689190610e05565b60405180910390f35b34801561017d57600080fd5b5061019860048036038101906101939190610dc5565b610a37565b6040516101a793929190610e61565b60405180910390f35b3480156101bc57600080fd5b506101d760048036038101906101d29190610c76565b610a9e565b6040516101e49190610e98565b60405180910390f35b3480156101f957600080fd5b50610202610adb565b60405161020f9190610e05565b60405180910390f35b34801561022457600080fd5b5061023f600480360381019061023a9190610c76565b610ae1565b60405161024c9190610e98565b60405180910390f35b34801561026157600080fd5b5061027c60048036038101906102779190610fe8565b610b14565b005b60006020528060005260406000206000915090508060000180546102a190611073565b80601f01602080910402602001604051908101604052809291908181526020018280546102cd90611073565b801561031a5780601f106102ef5761010080835404028352916020019161031a565b820191906000526020600020905b8154815290600101906020018083116102fd57829003601f168201915b5050505050908060010154908060020154908060030160009054906101000a900460ff16908060040154908060050154905086565b60008082815260200190815260200160002060030160009054906101000a900460ff16156103b2576040517f08c379a00000000000000000000000000000000000000000000000000000000081526004016103a9906110f0565b60405180910390fd5b6001600082815260200190815260200160002060009054906101000a900473ffffffffffffffffffffffffffffffffffffffff1673ffffffffffffffffffffffffffffffffffffffff163373ffffffffffffffffffffffffffffffffffffffff1614610453576040517f08c379a000000000000000000000000000000000000000000000000000000000815260040161044a90611182565b60405180910390fd5b600080828152602001908152602001600020600501544210156104ab576040517f08c379a00000000000000000000000000000000000000000000000000000000081526004016104a2906111ee565b60405180910390fd5b60006001600242336040516020016104c4929190611277565b6040516020818303038152906040528051906020012060001c6104e791906112d2565b6104f19190611332565b90508060008084815260200190815260200160002060040181905550600160008084815260200190815260200160002060030160006101000a81548160ff02191690831515021790555061054482610548565b5050565b6000806000838152602001908152602001600020905060008083815260200190815260200160002060030160009054906101000a900460ff166105c0576040517f08c379a00000000000000000000000000000000000000000000000000000000081526004016105b7906111ee565b60405180910390fd5b6000816004015490506000826002015483600101546105df9190611332565b90506000600183146105f55783600201546105fb565b83600101545b9050600061060886610a9e565b905060008203610663578073ffffffffffffffffffffffffffffffffffffffff166108fc849081150290604051600060405180830381858888f19350505050158015610658573d6000803e3d6000fd5b50505050505061080d565b600060646005856106749190611366565b61067e91906113a8565b90506000818561068e91906113d9565b90506000670de0b6b3a7640000905060008582846106ac9190611366565b6106b691906113a8565b90508473ffffffffffffffffffffffffffffffffffffffff166108fc859081150290604051600060405180830381858888f193505050501580156106fe573d6000803e3d6000fd5b5060005b600360008c815260200190815260200160002080549050811015610802576000600360008d815260200190815260200160002082815481106107475761074661140d565b5b90600052602060002090600302019050898160020154036107ee576000848483600101546107759190611366565b61077f91906113a8565b90508160000160009054906101000a900473ffffffffffffffffffffffffffffffffffffffff1673ffffffffffffffffffffffffffffffffffffffff166108fc829081150290604051600060405180830381858888f193505050501580156107eb573d6000803e3d6000fd5b50505b5080806107fa9061143c565b915050610702565b505050505050505050505b50565b60003411610853576040517f08c379a000000000000000000000000000000000000000000000000000000000815260040161084a906114d0565b60405180910390fd5b60008083815260200190815260200160002060030160009054906101000a900460ff16156108b6576040517f08c379a00000000000000000000000000000000000000000000000000000000081526004016108ad9061153c565b60405180910390fd5b6003600083815260200190815260200160002060405180606001604052803373ffffffffffffffffffffffffffffffffffffffff16815260200134815260200183815250908060018154018082558091505060019003906000526020600020906003020160009091909190915060008201518160000160006101000a81548173ffffffffffffffffffffffffffffffffffffffff021916908373ffffffffffffffffffffffffffffffffffffffff16021790555060208201518160010155604082015181600201555050600181036109b9573460008084815260200190815260200160002060010160008282546109ad9190611332565b92505081905550610a2e565b600281036109f2573460008084815260200190815260200160002060020160008282546109e69190611332565b92505081905550610a2d565b6040517f08c379a0000000000000000000000000000000000000000000000000000000008152600401610a24906115a8565b60405180910390fd5b5b5050565b600581565b60036020528160005260406000208181548110610a5357600080fd5b9060005260206000209060030201600091509150508060000160009054906101000a900473ffffffffffffffffffffffffffffffffffffffff16908060010154908060020154905083565b60006001600083815260200190815260200160002060009054906101000a900473ffffffffffffffffffffffffffffffffffffffff169050919050565b60025481565b60016020528060005260406000206000915054906101000a900473ffffffffffffffffffffffffffffffffffffffff1681565b6040518060c001604052808381526020016000815260200160008152602001600015158152602001600081526020018281525060008060025481526020019081526020016000206000820151816000019081610b709190611774565b50602082015181600101556040820151816002015560608201518160030160006101000a81548160ff0219169083151502179055506080820151816004015560a082015181600501559050503360016000600254815260200190815260200160002060006101000a81548173ffffffffffffffffffffffffffffffffffffffff021916908373ffffffffffffffffffffffffffffffffffffffff16021790555060026000815480929190610c239061143c565b91905055505050565b6000604051905090565b600080fd5b600080fd5b6000819050919050565b610c5381610c40565b8114610c5e57600080fd5b50565b600081359050610c7081610c4a565b92915050565b600060208284031215610c8c57610c8b610c36565b5b6000610c9a84828501610c61565b91505092915050565b600081519050919050565b600082825260208201905092915050565b60005b83811015610cdd578082015181840152602081019050610cc2565b60008484015250505050565b6000601f19601f8301169050919050565b6000610d0582610ca3565b610d0f8185610cae565b9350610d1f818560208601610cbf565b610d2881610ce9565b840191505092915050565b610d3c81610c40565b82525050565b60008115159050919050565b610d5781610d42565b82525050565b600060c0820190508181036000830152610d778189610cfa565b9050610d866020830188610d33565b610d936040830187610d33565b610da06060830186610d4e565b610dad6080830185610d33565b610dba60a0830184610d33565b979650505050505050565b60008060408385031215610ddc57610ddb610c36565b5b6000610dea85828601610c61565b9250506020610dfb85828601610c61565b9150509250929050565b6000602082019050610e1a6000830184610d33565b92915050565b600073ffffffffffffffffffffffffffffffffffffffff82169050919050565b6000610e4b82610e20565b9050919050565b610e5b81610e40565b82525050565b6000606082019050610e766000830186610e52565b610e836020830185610d33565b610e906040830184610d33565b949350505050565b6000602082019050610ead6000830184610e52565b92915050565b600080fd5b600080fd5b7f4e487b7100000000000000000000000000000000000000000000000000000000600052604160045260246000fd5b610ef582610ce9565b810181811067ffffffffffffffff82111715610f1457610f13610ebd565b5b80604052505050565b6000610f27610c2c565b9050610f338282610eec565b919050565b600067ffffffffffffffff821115610f5357610f52610ebd565b5b610f5c82610ce9565b9050602081019050919050565b82818337600083830152505050565b6000610f8b610f8684610f38565b610f1d565b905082815260208101848484011115610fa757610fa6610eb8565b5b610fb2848285610f69565b509392505050565b600082601f830112610fcf57610fce610eb3565b5b8135610fdf848260208601610f78565b91505092915050565b60008060408385031215610fff57610ffe610c36565b5b600083013567ffffffffffffffff81111561101d5761101c610c3b565b5b61102985828601610fba565b925050602061103a85828601610c61565b9150509250929050565b7f4e487b7100000000000000000000000000000000000000000000000000000000600052602260045260246000fd5b6000600282049050600182168061108b57607f821691505b60208210810361109e5761109d611044565b5b50919050565b7f4576656e746f206a61206665636861646f000000000000000000000000000000600082015250565b60006110da601183610cae565b91506110e5826110a4565b602082019050919050565b60006020820190508181036000830152611109816110cd565b9050919050565b7f4170656e6173206f2063726961646f7220646f206576656e746f20706f64652060008201527f6665636861720000000000000000000000000000000000000000000000000000602082015250565b600061116c602683610cae565b915061117782611110565b604082019050919050565b6000602082019050818103600083015261119b8161115f565b9050919050565b7f4576656e746f2061696e6461206e616f20656e6365727261646f000000000000600082015250565b60006111d8601a83610cae565b91506111e3826111a2565b602082019050919050565b60006020820190508181036000830152611207816111cb565b9050919050565b6000819050919050565b61122961122482610c40565b61120e565b82525050565b60008160601b9050919050565b60006112478261122f565b9050919050565b60006112598261123c565b9050919050565b61127161126c82610e40565b61124e565b82525050565b60006112838285611218565b6020820191506112938284611260565b6014820191508190509392505050565b7f4e487b7100000000000000000000000000000000000000000000000000000000600052601260045260246000fd5b60006112dd82610c40565b91506112e883610c40565b9250826112f8576112f76112a3565b5b828206905092915050565b7f4e487b7100000000000000000000000000000000000000000000000000000000600052601160045260246000fd5b600061133d82610c40565b915061134883610c40565b92508282019050808211156113605761135f611303565b5b92915050565b600061137182610c40565b915061137c83610c40565b925082820261138a81610c40565b915082820484148315176113a1576113a0611303565b5b5092915050565b60006113b382610c40565b91506113be83610c40565b9250826113ce576113cd6112a3565b5b828204905092915050565b60006113e482610c40565b91506113ef83610c40565b925082820390508181111561140757611406611303565b5b92915050565b7f4e487b7100000000000000000000000000000000000000000000000000000000600052603260045260246000fd5b600061144782610c40565b91507fffffffffffffffffffffffffffffffffffffffffffffffffffffffffffffffff820361147957611478611303565b5b600182019050919050565b7f446576652073657220656e766961646f20657468657265756d00000000000000600082015250565b60006114ba601983610cae565b91506114c582611484565b602082019050919050565b600060208201905081810360008301526114e9816114ad565b9050919050565b7f4576656e746f206665636861646f000000000000000000000000000000000000600082015250565b6000611526600e83610cae565b9150611531826114f0565b602082019050919050565b6000602082019050818103600083015261155581611519565b9050919050565b7f4573636f6c686120696e76616c69646100000000000000000000000000000000600082015250565b6000611592601083610cae565b915061159d8261155c565b602082019050919050565b600060208201905081810360008301526115c181611585565b9050919050565b60008190508160005260206000209050919050565b60006020601f8301049050919050565b600082821b905092915050565b60006008830261162a7fffffffffffffffffffffffffffffffffffffffffffffffffffffffffffffffff826115ed565b61163486836115ed565b95508019841693508086168417925050509392505050565b6000819050919050565b600061167161166c61166784610c40565b61164c565b610c40565b9050919050565b6000819050919050565b61168b83611656565b61169f61169782611678565b8484546115fa565b825550505050565b600090565b6116b46116a7565b6116bf818484611682565b505050565b5b818110156116e3576116d86000826116ac565b6001810190506116c5565b5050565b601f821115611728576116f9816115c8565b611702846115dd565b81016020851015611711578190505b61172561171d856115dd565b8301826116c4565b50505b505050565b600082821c905092915050565b600061174b6000198460080261172d565b1980831691505092915050565b6000611764838361173a565b9150826002028217905092915050565b61177d82610ca3565b67ffffffffffffffff81111561179657611795610ebd565b5b6117a08254611073565b6117ab8282856116e7565b600060209050601f8311600181146117de57600084156117cc578287015190505b6117d68582611758565b86555061183e565b601f1984166117ec866115c8565b60005b82811015611814578489015182556001820191506020850194506020810190506117ef565b86831015611831578489015161182d601f89168261173a565b8355505b6001600288020188555050505b50505050505056fea2646970667358221220fa7e6d2a8f4f5e746d1ae3be02ca58f8bbfafcf2b372efaebf21843877a29e5664736f6c63430008110033",
  "immutableReferences": {},
  "source": "// SPDX-License-Identifier: MIT\r\npragma solidity ^0.8.0;\r\n\r\ncontract EventManager {\r\n\r\n    uint256 public constant COMMISSION = 5; // 5% do valor apostado no evento vai para o criador\r\n    \r\n    struct Event {\r\n        string name; // Nome do evento\r\n        uint256 totalFor; // Total de apostas a favor\r\n        uint256 totalAgainst; // Total de apostas contra\r\n        bool closed; // Evento fechado ou no\r\n        uint256 result; // 0 for \"open\", 1 for \"for\", 2 for \"against\"\r\n        uint256 endTimestamp; // Timestamp de encerramento do evento\r\n    }\r\n    \r\n    mapping(uint256 => Event) public events; // Mapping/Dicionrio de eventos (ID: event)\r\n    mapping(uint256 => address) public eventCreators; // Criador de cada evento\r\n    uint256 public eventCount = 0;\r\n\r\n     struct Bet {\r\n        address bettor;\r\n        uint256 value;\r\n        uint256 choice; // 1 ou 2\r\n    }\r\n\r\n    // Dicionrio de eventos com uma lista de apostas {eventId: [Bet1, Bet2, ...]}\r\n    mapping(uint256 => Bet[]) public bets;\r\n\r\n    // Funo para criao de evento (adicionando-o ao dicionrio)\r\n    function createEvent(string memory _name, uint256 _endTimestamp) public {\r\n        events[eventCount] = Event(\r\n            _name,\r\n            0,\r\n            0,\r\n            false,\r\n            0,\r\n            _endTimestamp\r\n        );\r\n        eventCreators[eventCount] = msg.sender; // Armazena o criador do evento\r\n        eventCount++;\r\n    }\r\n\r\n    // Funo de distribuio de valores aps finalizao do evento\r\n    function resolveBets(uint256 _eventId) public {\r\n        Event storage eventDetails = events[_eventId];\r\n        require(events[_eventId].closed, \"Evento ainda nao encerrado\");\r\n\r\n        uint256 winningChoice = eventDetails.result;\r\n        uint256 totalPool = eventDetails.totalFor + eventDetails.totalAgainst;\r\n        uint256 winningPool = (winningChoice == 1) ? eventDetails.totalFor : eventDetails.totalAgainst;\r\n\r\n        // Pega o criador do evento pelo event id\r\n        address creatorEvent = getEventCreator(_eventId);\r\n        \r\n        // Caso no haja apostas na escolha vencedora\r\n        if (winningPool == 0) {\r\n            // Transfere todo o saldo do evento ao criador\r\n            payable(creatorEvent).transfer(totalPool);\r\n            return; // Finaliza a execuo\r\n        }\r\n\r\n        uint256 creatorCommission = (totalPool * COMMISSION) / 100;\r\n        uint256 rewardPool = totalPool - creatorCommission;\r\n\r\n        // Defina uma constante de preciso\r\n        uint256 PRECISION = 1e18;\r\n\r\n        // Multiplique antes de dividir para manter a preciso\r\n        uint256 rewardPerUnit = (rewardPool * PRECISION) / winningPool;\r\n\r\n        // Paga o criador do evento a comisso\r\n        payable(creatorEvent).transfer(creatorCommission);\r\n\r\n        // Distribui as recompensas para os vencedores\r\n        for (uint256 i = 0; i < bets[_eventId].length; i++) {\r\n            Bet storage userBet = bets[_eventId][i];\r\n            if (userBet.choice == winningChoice) {\r\n                // Multiplique o valor da aposta pelo rewardPerUnit e divida pela preciso\r\n                uint256 reward = (userBet.value * rewardPerUnit) / PRECISION;\r\n                payable(userBet.bettor).transfer(reward);\r\n            }\r\n        }\r\n    }\r\n\r\n    // Funo para encerrar um evento e registrar o resultado\r\n    function closeEvent(uint256 _eventId) public {\r\n        require(!events[_eventId].closed, \"Evento ja fechado\");\r\n        require(msg.sender == eventCreators[_eventId], \"Apenas o criador do evento pode fechar\");\r\n        require(block.timestamp >= events[_eventId].endTimestamp, \"Evento ainda nao encerrado\");\r\n\r\n        // Sorteio do resultado\r\n        uint256 random = uint256(keccak256(abi.encodePacked(block.timestamp, msg.sender))) % 2 + 1;\r\n\r\n        events[_eventId].result = random;\r\n        events[_eventId].closed = true;\r\n        resolveBets(_eventId);\r\n    }\r\n\r\n\r\n    // Funo para consultar o criador de um evento\r\n    function getEventCreator(uint256 _eventId) public view returns (address) {\r\n        return eventCreators[_eventId];\r\n    }\r\n\r\n    // =====---------------------------Funes de betting-------------------------------------=====\r\n\r\n    // Funo em que o usurio insere o valor (aposta) em um evento\r\n    function placeBet(uint256 _eventId, uint256 _choice) public payable {\r\n        require(msg.value > 0, \"Deve ser enviado ethereum\"); // Precisa enviar ether\r\n        require(!events[_eventId].closed, \"Evento fechado\"); // Evento fechado\r\n\r\n        bets[_eventId].push(Bet(msg.sender, msg.value, _choice));\r\n\r\n        // Se a escolha for a primeira\r\n        if (_choice == 1) {\r\n            events[_eventId].totalFor += msg.value;\r\n        // Se a escolha for a segunda\r\n        } else if (_choice == 2){\r\n            events[_eventId].totalAgainst += msg.value;\r\n        } else {\r\n            revert(\"Escolha invalida\");\r\n        }\r\n    }\r\n\r\n    \r\n}",
  "sourcePath": "D:\\Projetos\\Bet Distribuida\\contracts\\EventManager.sol",
  "compiler": {
    "name": "solc",
    "version": "0.8.17+commit.8df45f5f.Emscripten.clang"
  },
  "schemaVersion": "3.4.16",
  "updatedAt": "2024-12-09T22:31:44.420Z",
  "networkType": "ethereum",
  "devdoc": {
    "kind": "dev",
    "methods": {},
    "version": 1
  },
  "userdoc": {
    "kind": "user",
    "methods": {},
    "version": 1
  }
}