{
  "contractName": "EventManager",
  "abi": [
    {
      "inputs": [],
      "name": "COMMISSION",
      "outputs": [
        {
          "internalType": "uint256",
          "name": "",
          "type": "uint256"
        }
      ],
      "stateMutability": "view",
      "type": "function",
      "constant": true
    },
    {
      "inputs": [
        {
          "internalType": "uint256",
          "name": "",
          "type": "uint256"
        },
        {
          "internalType": "uint256",
          "name": "",
          "type": "uint256"
        }
      ],
      "name": "bets",
      "outputs": [
        {
          "internalType": "address",
          "name": "bettor",
          "type": "address"
        },
        {
          "internalType": "uint256",
          "name": "value",
          "type": "uint256"
        },
        {
          "internalType": "uint256",
          "name": "choice",
          "type": "uint256"
        }
      ],
      "stateMutability": "view",
      "type": "function",
      "constant": true
    },
    {
      "inputs": [],
      "name": "eventCount",
      "outputs": [
        {
          "internalType": "uint256",
          "name": "",
          "type": "uint256"
        }
      ],
      "stateMutability": "view",
      "type": "function",
      "constant": true
    },
    {
      "inputs": [
        {
          "internalType": "uint256",
          "name": "",
          "type": "uint256"
        }
      ],
      "name": "eventCreators",
      "outputs": [
        {
          "internalType": "address",
          "name": "",
          "type": "address"
        }
      ],
      "stateMutability": "view",
      "type": "function",
      "constant": true
    },
    {
      "inputs": [
        {
          "internalType": "uint256",
          "name": "",
          "type": "uint256"
        }
      ],
      "name": "events",
      "outputs": [
        {
          "internalType": "string",
          "name": "name",
          "type": "string"
        },
        {
          "internalType": "uint256",
          "name": "totalFor",
          "type": "uint256"
        },
        {
          "internalType": "uint256",
          "name": "totalAgainst",
          "type": "uint256"
        },
        {
          "internalType": "bool",
          "name": "closed",
          "type": "bool"
        },
        {
          "internalType": "uint256",
          "name": "result",
          "type": "uint256"
        },
        {
          "internalType": "uint256",
          "name": "endTimestamp",
          "type": "uint256"
        }
      ],
      "stateMutability": "view",
      "type": "function",
      "constant": true
    },
    {
      "inputs": [
        {
          "internalType": "string",
          "name": "_name",
          "type": "string"
        },
        {
          "internalType": "uint256",
          "name": "_endTimestamp",
          "type": "uint256"
        }
      ],
      "name": "createEvent",
      "outputs": [],
      "stateMutability": "nonpayable",
      "type": "function"
    },
    {
      "inputs": [
        {
          "internalType": "uint256",
          "name": "_eventId",
          "type": "uint256"
        }
      ],
      "name": "resolveBets",
      "outputs": [],
      "stateMutability": "nonpayable",
      "type": "function"
    },
    {
      "inputs": [
        {
          "internalType": "uint256",
          "name": "_eventId",
          "type": "uint256"
        }
      ],
      "name": "closeEvent",
      "outputs": [],
      "stateMutability": "nonpayable",
      "type": "function"
    },
    {
      "inputs": [
        {
          "internalType": "uint256",
          "name": "_eventId",
          "type": "uint256"
        }
      ],
      "name": "getEventCreator",
      "outputs": [
        {
          "internalType": "address",
          "name": "",
          "type": "address"
        }
      ],
      "stateMutability": "view",
      "type": "function",
      "constant": true
    },
    {
      "inputs": [
        {
          "internalType": "uint256",
          "name": "_eventId",
          "type": "uint256"
        },
        {
          "internalType": "uint256",
          "name": "_choice",
          "type": "uint256"
        }
      ],
      "name": "placeBet",
      "outputs": [],
      "stateMutability": "payable",
      "type": "function",
      "payable": true
    }
  ],
  "bytecode": "0x6080604052600060025534801561001557600080fd5b506118d1806100256000396000f3fe6080604052600436106100915760003560e01c80636a09f6be116100595780636a09f6be146101715780636c7f0d4e146101b057806371be2e4a146101ed57806395fa6c50146102185780639a4d43851461025557610091565b80630b791430146100965780632ee07c00146100d85780632fa0a115146101015780634afe62b51461012a578063562df3d514610146575b600080fd5b3480156100a257600080fd5b506100bd60048036038101906100b89190610c5f565b61027e565b6040516100cf96959493929190610d46565b60405180910390f35b3480156100e457600080fd5b506100ff60048036038101906100fa9190610c5f565b61034f565b005b34801561010d57600080fd5b5061012860048036038101906101239190610c5f565b610548565b005b610144600480360381019061013f9190610dae565b6107f9565b005b34801561015257600080fd5b5061015b610a1b565b6040516101689190610dee565b60405180910390f35b34801561017d57600080fd5b5061019860048036038101906101939190610dae565b610a20565b6040516101a793929190610e4a565b60405180910390f35b3480156101bc57600080fd5b506101d760048036038101906101d29190610c5f565b610a87565b6040516101e49190610e81565b60405180910390f35b3480156101f957600080fd5b50610202610ac4565b60405161020f9190610dee565b60405180910390f35b34801561022457600080fd5b5061023f600480360381019061023a9190610c5f565b610aca565b60405161024c9190610e81565b60405180910390f35b34801561026157600080fd5b5061027c60048036038101906102779190610fd1565b610afd565b005b60006020528060005260406000206000915090508060000180546102a19061105c565b80601f01602080910402602001604051908101604052809291908181526020018280546102cd9061105c565b801561031a5780601f106102ef5761010080835404028352916020019161031a565b820191906000526020600020905b8154815290600101906020018083116102fd57829003601f168201915b5050505050908060010154908060020154908060030160009054906101000a900460ff16908060040154908060050154905086565b60008082815260200190815260200160002060030160009054906101000a900460ff16156103b2576040517f08c379a00000000000000000000000000000000000000000000000000000000081526004016103a9906110d9565b60405180910390fd5b6001600082815260200190815260200160002060009054906101000a900473ffffffffffffffffffffffffffffffffffffffff1673ffffffffffffffffffffffffffffffffffffffff163373ffffffffffffffffffffffffffffffffffffffff1614610453576040517f08c379a000000000000000000000000000000000000000000000000000000000815260040161044a9061116b565b60405180910390fd5b600080828152602001908152602001600020600501544210156104ab576040517f08c379a00000000000000000000000000000000000000000000000000000000081526004016104a2906111d7565b60405180910390fd5b60006001600242336040516020016104c4929190611260565b6040516020818303038152906040528051906020012060001c6104e791906112bb565b6104f1919061131b565b90508060008084815260200190815260200160002060040181905550600160008084815260200190815260200160002060030160006101000a81548160ff02191690831515021790555061054482610548565b5050565b6000806000838152602001908152602001600020905060008083815260200190815260200160002060030160009054906101000a900460ff166105c0576040517f08c379a00000000000000000000000000000000000000000000000000000000081526004016105b7906111d7565b60405180910390fd5b6000816004015490506000826002015483600101546105df919061131b565b90506000600183146105f55783600201546105fb565b83600101545b905060008111610640576040517f08c379a00000000000000000000000000000000000000000000000000000000081526004016106379061139b565b60405180910390fd5b6000606460058461065191906113bb565b61065b91906113fd565b90506000818461066b919061142e565b90506000670de0b6b3a76400009050600084828461068991906113bb565b61069391906113fd565b905060006106a08a610a87565b90508073ffffffffffffffffffffffffffffffffffffffff166108fc869081150290604051600060405180830381858888f193505050501580156106e8573d6000803e3d6000fd5b5060005b600360008c8152602001908152602001600020805490508110156107ec576000600360008d8152602001908152602001600020828154811061073157610730611462565b5b90600052602060002090600302019050898160020154036107d85760008585836001015461075f91906113bb565b61076991906113fd565b90508160000160009054906101000a900473ffffffffffffffffffffffffffffffffffffffff1673ffffffffffffffffffffffffffffffffffffffff166108fc829081150290604051600060405180830381858888f193505050501580156107d5573d6000803e3d6000fd5b50505b5080806107e490611491565b9150506106ec565b5050505050505050505050565b6000341161083c576040517f08c379a000000000000000000000000000000000000000000000000000000000815260040161083390611525565b60405180910390fd5b60008083815260200190815260200160002060030160009054906101000a900460ff161561089f576040517f08c379a000000000000000000000000000000000000000000000000000000000815260040161089690611591565b60405180910390fd5b6003600083815260200190815260200160002060405180606001604052803373ffffffffffffffffffffffffffffffffffffffff16815260200134815260200183815250908060018154018082558091505060019003906000526020600020906003020160009091909190915060008201518160000160006101000a81548173ffffffffffffffffffffffffffffffffffffffff021916908373ffffffffffffffffffffffffffffffffffffffff16021790555060208201518160010155604082015181600201555050600181036109a257346000808481526020019081526020016000206001016000828254610996919061131b565b92505081905550610a17565b600281036109db573460008084815260200190815260200160002060020160008282546109cf919061131b565b92505081905550610a16565b6040517f08c379a0000000000000000000000000000000000000000000000000000000008152600401610a0d906115fd565b60405180910390fd5b5b5050565b600581565b60036020528160005260406000208181548110610a3c57600080fd5b9060005260206000209060030201600091509150508060000160009054906101000a900473ffffffffffffffffffffffffffffffffffffffff16908060010154908060020154905083565b60006001600083815260200190815260200160002060009054906101000a900473ffffffffffffffffffffffffffffffffffffffff169050919050565b60025481565b60016020528060005260406000206000915054906101000a900473ffffffffffffffffffffffffffffffffffffffff1681565b6040518060c001604052808381526020016000815260200160008152602001600015158152602001600081526020018281525060008060025481526020019081526020016000206000820151816000019081610b5991906117c9565b50602082015181600101556040820151816002015560608201518160030160006101000a81548160ff0219169083151502179055506080820151816004015560a082015181600501559050503360016000600254815260200190815260200160002060006101000a81548173ffffffffffffffffffffffffffffffffffffffff021916908373ffffffffffffffffffffffffffffffffffffffff16021790555060026000815480929190610c0c90611491565b91905055505050565b6000604051905090565b600080fd5b600080fd5b6000819050919050565b610c3c81610c29565b8114610c4757600080fd5b50565b600081359050610c5981610c33565b92915050565b600060208284031215610c7557610c74610c1f565b5b6000610c8384828501610c4a565b91505092915050565b600081519050919050565b600082825260208201905092915050565b60005b83811015610cc6578082015181840152602081019050610cab565b60008484015250505050565b6000601f19601f8301169050919050565b6000610cee82610c8c565b610cf88185610c97565b9350610d08818560208601610ca8565b610d1181610cd2565b840191505092915050565b610d2581610c29565b82525050565b60008115159050919050565b610d4081610d2b565b82525050565b600060c0820190508181036000830152610d608189610ce3565b9050610d6f6020830188610d1c565b610d7c6040830187610d1c565b610d896060830186610d37565b610d966080830185610d1c565b610da360a0830184610d1c565b979650505050505050565b60008060408385031215610dc557610dc4610c1f565b5b6000610dd385828601610c4a565b9250506020610de485828601610c4a565b9150509250929050565b6000602082019050610e036000830184610d1c565b92915050565b600073ffffffffffffffffffffffffffffffffffffffff82169050919050565b6000610e3482610e09565b9050919050565b610e4481610e29565b82525050565b6000606082019050610e5f6000830186610e3b565b610e6c6020830185610d1c565b610e796040830184610d1c565b949350505050565b6000602082019050610e966000830184610e3b565b92915050565b600080fd5b600080fd5b7f4e487b7100000000000000000000000000000000000000000000000000000000600052604160045260246000fd5b610ede82610cd2565b810181811067ffffffffffffffff82111715610efd57610efc610ea6565b5b80604052505050565b6000610f10610c15565b9050610f1c8282610ed5565b919050565b600067ffffffffffffffff821115610f3c57610f3b610ea6565b5b610f4582610cd2565b9050602081019050919050565b82818337600083830152505050565b6000610f74610f6f84610f21565b610f06565b905082815260208101848484011115610f9057610f8f610ea1565b5b610f9b848285610f52565b509392505050565b600082601f830112610fb857610fb7610e9c565b5b8135610fc8848260208601610f61565b91505092915050565b60008060408385031215610fe857610fe7610c1f565b5b600083013567ffffffffffffffff81111561100657611005610c24565b5b61101285828601610fa3565b925050602061102385828601610c4a565b9150509250929050565b7f4e487b7100000000000000000000000000000000000000000000000000000000600052602260045260246000fd5b6000600282049050600182168061107457607f821691505b6020821081036110875761108661102d565b5b50919050565b7f4576656e746f206a61206665636861646f000000000000000000000000000000600082015250565b60006110c3601183610c97565b91506110ce8261108d565b602082019050919050565b600060208201905081810360008301526110f2816110b6565b9050919050565b7f4170656e6173206f2063726961646f7220646f206576656e746f20706f64652060008201527f6665636861720000000000000000000000000000000000000000000000000000602082015250565b6000611155602683610c97565b9150611160826110f9565b604082019050919050565b6000602082019050818103600083015261118481611148565b9050919050565b7f4576656e746f2061696e6461206e616f20656e6365727261646f000000000000600082015250565b60006111c1601a83610c97565b91506111cc8261118b565b602082019050919050565b600060208201905081810360008301526111f0816111b4565b9050919050565b6000819050919050565b61121261120d82610c29565b6111f7565b82525050565b60008160601b9050919050565b600061123082611218565b9050919050565b600061124282611225565b9050919050565b61125a61125582610e29565b611237565b82525050565b600061126c8285611201565b60208201915061127c8284611249565b6014820191508190509392505050565b7f4e487b7100000000000000000000000000000000000000000000000000000000600052601260045260246000fd5b60006112c682610c29565b91506112d183610c29565b9250826112e1576112e061128c565b5b828206905092915050565b7f4e487b7100000000000000000000000000000000000000000000000000000000600052601160045260246000fd5b600061132682610c29565b915061133183610c29565b9250828201905080821115611349576113486112ec565b5b92915050565b7f4469766973616f20706f72207a65726f00000000000000000000000000000000600082015250565b6000611385601083610c97565b91506113908261134f565b602082019050919050565b600060208201905081810360008301526113b481611378565b9050919050565b60006113c682610c29565b91506113d183610c29565b92508282026113df81610c29565b915082820484148315176113f6576113f56112ec565b5b5092915050565b600061140882610c29565b915061141383610c29565b9250826114235761142261128c565b5b828204905092915050565b600061143982610c29565b915061144483610c29565b925082820390508181111561145c5761145b6112ec565b5b92915050565b7f4e487b7100000000000000000000000000000000000000000000000000000000600052603260045260246000fd5b600061149c82610c29565b91507fffffffffffffffffffffffffffffffffffffffffffffffffffffffffffffffff82036114ce576114cd6112ec565b5b600182019050919050565b7f446576652073657220656e766961646f20657468657265756d00000000000000600082015250565b600061150f601983610c97565b915061151a826114d9565b602082019050919050565b6000602082019050818103600083015261153e81611502565b9050919050565b7f4576656e746f206665636861646f000000000000000000000000000000000000600082015250565b600061157b600e83610c97565b915061158682611545565b602082019050919050565b600060208201905081810360008301526115aa8161156e565b9050919050565b7f4573636f6c686120696e76616c69646100000000000000000000000000000000600082015250565b60006115e7601083610c97565b91506115f2826115b1565b602082019050919050565b60006020820190508181036000830152611616816115da565b9050919050565b60008190508160005260206000209050919050565b60006020601f8301049050919050565b600082821b905092915050565b60006008830261167f7fffffffffffffffffffffffffffffffffffffffffffffffffffffffffffffffff82611642565b6116898683611642565b95508019841693508086168417925050509392505050565b6000819050919050565b60006116c66116c16116bc84610c29565b6116a1565b610c29565b9050919050565b6000819050919050565b6116e0836116ab565b6116f46116ec826116cd565b84845461164f565b825550505050565b600090565b6117096116fc565b6117148184846116d7565b505050565b5b818110156117385761172d600082611701565b60018101905061171a565b5050565b601f82111561177d5761174e8161161d565b61175784611632565b81016020851015611766578190505b61177a61177285611632565b830182611719565b50505b505050565b600082821c905092915050565b60006117a060001984600802611782565b1980831691505092915050565b60006117b9838361178f565b9150826002028217905092915050565b6117d282610c8c565b67ffffffffffffffff8111156117eb576117ea610ea6565b5b6117f5825461105c565b61180082828561173c565b600060209050601f8311600181146118335760008415611821578287015190505b61182b85826117ad565b865550611893565b601f1984166118418661161d565b60005b8281101561186957848901518255600182019150602085019450602081019050611844565b868310156118865784890151611882601f89168261178f565b8355505b6001600288020188555050505b50505050505056fea26469706673582212208f508d569cbac2dc2abcb5bc1c34890288031e9a4c1cfc2b8f3d7021d9c3013264736f6c63430008110033",
  "immutableReferences": {},
  "source": "// SPDX-License-Identifier: MIT\r\npragma solidity ^0.8.0;\r\n\r\ncontract EventManager {\r\n\r\n    uint256 public constant COMMISSION = 5; // 5% do valor apostado no evento vai para o criador\r\n    \r\n    struct Event {\r\n        string name; // Nome do evento\r\n        uint256 totalFor; // Total de apostas a favor\r\n        uint256 totalAgainst; // Total de apostas contra\r\n        bool closed; // Evento fechado ou no\r\n        uint256 result; // 0 for \"open\", 1 for \"for\", 2 for \"against\"\r\n        uint256 endTimestamp; // Timestamp de encerramento do evento\r\n    }\r\n    \r\n    mapping(uint256 => Event) public events; // Mapping/Dicionrio de eventos (ID: event)\r\n    mapping(uint256 => address) public eventCreators; // Criador de cada evento\r\n    uint256 public eventCount = 0;\r\n\r\n     struct Bet {\r\n        address bettor;\r\n        uint256 value;\r\n        uint256 choice; // 1 ou 2\r\n    }\r\n\r\n    // Dicionrio de eventos com uma lista de apostas {eventId: [Bet1, Bet2, ...]}\r\n    mapping(uint256 => Bet[]) public bets;\r\n\r\n    // Funo para criao de evento (adicionando-o ao dicionrio)\r\n    function createEvent(string memory _name, uint256 _endTimestamp) public {\r\n        events[eventCount] = Event(\r\n            _name,\r\n            0,\r\n            0,\r\n            false,\r\n            0,\r\n            _endTimestamp\r\n        );\r\n        eventCreators[eventCount] = msg.sender; // Armazena o criador do evento\r\n        eventCount++;\r\n    }\r\n\r\n    // Funo de distribuio de valores aps finalizao do evento\r\n    function resolveBets(uint256 _eventId) public {\r\n        Event storage eventDetails = events[_eventId];\r\n        require(events[_eventId].closed, \"Evento ainda nao encerrado\");\r\n\r\n        uint256 winningChoice = eventDetails.result;\r\n        uint256 totalPool = eventDetails.totalFor + eventDetails.totalAgainst;\r\n        uint256 winningPool = (winningChoice == 1) ? eventDetails.totalFor : eventDetails.totalAgainst;\r\n\r\n        // Verifica se winningPool  zero para evitar diviso por zero\r\n        require(winningPool > 0, \"Divisao por zero\");\r\n\r\n        uint256 creatorCommission = (totalPool * COMMISSION) / 100;\r\n        uint256 rewardPool = totalPool - creatorCommission;\r\n\r\n        // Defina uma constante de preciso\r\n        uint256 PRECISION = 1e18;\r\n\r\n        // Multiplique antes de dividir para manter a preciso\r\n        uint256 rewardPerUnit = (rewardPool * PRECISION) / winningPool;\r\n\r\n        // Pega o criador do evento pelo event id\r\n        address creatorEvent = getEventCreator(_eventId);\r\n\r\n        // Paga o criador do evento a comisso\r\n        payable(creatorEvent).transfer(creatorCommission);\r\n\r\n        // Distribui as recompensas para os vencedores\r\n        for (uint256 i = 0; i < bets[_eventId].length; i++) {\r\n            Bet storage userBet = bets[_eventId][i];\r\n            if (userBet.choice == winningChoice) {\r\n                // Multiplique o valor da aposta pelo rewardPerUnit e divida pela preciso\r\n                uint256 reward = (userBet.value * rewardPerUnit) / PRECISION;\r\n                payable(userBet.bettor).transfer(reward);\r\n            }\r\n        }\r\n    }\r\n\r\n    // Funo para encerrar um evento e registrar o resultado\r\n    function closeEvent(uint256 _eventId) public {\r\n        require(!events[_eventId].closed, \"Evento ja fechado\");\r\n        require(msg.sender == eventCreators[_eventId], \"Apenas o criador do evento pode fechar\");\r\n        require(block.timestamp >= events[_eventId].endTimestamp, \"Evento ainda nao encerrado\");\r\n\r\n        // Sorteio do resultado\r\n        uint256 random = uint256(keccak256(abi.encodePacked(block.timestamp, msg.sender))) % 2 + 1;\r\n\r\n        events[_eventId].result = random;\r\n        events[_eventId].closed = true;\r\n        resolveBets(_eventId);\r\n    }\r\n\r\n\r\n    // Funo para consultar o criador de um evento\r\n    function getEventCreator(uint256 _eventId) public view returns (address) {\r\n        return eventCreators[_eventId];\r\n    }\r\n\r\n    // =====---------------------------Funes de betting-------------------------------------=====\r\n\r\n    // Funo em que o usurio insere o valor (aposta) em um evento\r\n    function placeBet(uint256 _eventId, uint256 _choice) public payable {\r\n        require(msg.value > 0, \"Deve ser enviado ethereum\"); // Precisa enviar ether\r\n        require(!events[_eventId].closed, \"Evento fechado\"); // Evento fechado\r\n\r\n        bets[_eventId].push(Bet(msg.sender, msg.value, _choice));\r\n\r\n        // Se a escolha for a primeira\r\n        if (_choice == 1) {\r\n            events[_eventId].totalFor += msg.value;\r\n        // Se a escolha for a segunda\r\n        } else if (_choice == 2){\r\n            events[_eventId].totalAgainst += msg.value;\r\n        } else {\r\n            revert(\"Escolha invalida\");\r\n        }\r\n    }\r\n\r\n    \r\n}",
  "sourcePath": "C:\\Users\\Gabriel Almeida\\Documents\\PBL\\Bet-Distribuida\\contracts\\EventManager.sol",
  "compiler": {
    "name": "solc",
    "version": "0.8.17+commit.8df45f5f.Emscripten.clang"
  },
  "schemaVersion": "3.4.16",
  "updatedAt": "2024-12-09T02:52:46.125Z",
  "networkType": "ethereum",
  "devdoc": {
    "kind": "dev",
    "methods": {},
    "version": 1
  },
  "userdoc": {
    "kind": "user",
    "methods": {},
    "version": 1
  }
}