{
  "contractName": "Wallet",
  "abi": [
    {
      "inputs": [
        {
          "internalType": "address",
          "name": "",
          "type": "address"
        }
      ],
      "name": "balances",
      "outputs": [
        {
          "internalType": "uint256",
          "name": "",
          "type": "uint256"
        }
      ],
      "stateMutability": "view",
      "type": "function"
    },
    {
      "inputs": [],
      "name": "deposit",
      "outputs": [],
      "stateMutability": "payable",
      "type": "function"
    },
    {
      "inputs": [
        {
          "internalType": "uint256",
          "name": "amount",
          "type": "uint256"
        }
      ],
      "name": "withdraw",
      "outputs": [],
      "stateMutability": "nonpayable",
      "type": "function"
    },
    {
      "inputs": [
        {
          "internalType": "address",
          "name": "user",
          "type": "address"
        }
      ],
      "name": "getBalance",
      "outputs": [
        {
          "internalType": "uint256",
          "name": "",
          "type": "uint256"
        }
      ],
      "stateMutability": "view",
      "type": "function"
    }
  ],
  "bytecode": "0x608060405234801561001057600080fd5b506105de806100206000396000f3fe60806040526004361061003f5760003560e01c806327e235e3146100445780632e1a7d4d14610081578063d0e30db0146100aa578063f8b2cb4f146100b4575b600080fd5b34801561005057600080fd5b5061006b6004803603810190610066919061036e565b6100f1565b60405161007891906103b4565b60405180910390f35b34801561008d57600080fd5b506100a860048036038101906100a391906103fb565b610109565b005b6100b2610229565b005b3480156100c057600080fd5b506100db60048036038101906100d6919061036e565b6102c3565b6040516100e891906103b4565b60405180910390f35b60006020528060005260406000206000915090505481565b806000803373ffffffffffffffffffffffffffffffffffffffff1673ffffffffffffffffffffffffffffffffffffffff16815260200190815260200160002054101561018a576040517f08c379a000000000000000000000000000000000000000000000000000000000815260040161018190610485565b60405180910390fd5b806000803373ffffffffffffffffffffffffffffffffffffffff1673ffffffffffffffffffffffffffffffffffffffff16815260200190815260200160002060008282546101d891906104d4565b925050819055503373ffffffffffffffffffffffffffffffffffffffff166108fc829081150290604051600060405180830381858888f19350505050158015610225573d6000803e3d6000fd5b5050565b6000341161026c576040517f08c379a000000000000000000000000000000000000000000000000000000000815260040161026390610554565b60405180910390fd5b346000803373ffffffffffffffffffffffffffffffffffffffff1673ffffffffffffffffffffffffffffffffffffffff16815260200190815260200160002060008282546102ba9190610574565b92505081905550565b60008060008373ffffffffffffffffffffffffffffffffffffffff1673ffffffffffffffffffffffffffffffffffffffff168152602001908152602001600020549050919050565b600080fd5b600073ffffffffffffffffffffffffffffffffffffffff82169050919050565b600061033b82610310565b9050919050565b61034b81610330565b811461035657600080fd5b50565b60008135905061036881610342565b92915050565b6000602082840312156103845761038361030b565b5b600061039284828501610359565b91505092915050565b6000819050919050565b6103ae8161039b565b82525050565b60006020820190506103c960008301846103a5565b92915050565b6103d88161039b565b81146103e357600080fd5b50565b6000813590506103f5816103cf565b92915050565b6000602082840312156104115761041061030b565b5b600061041f848285016103e6565b91505092915050565b600082825260208201905092915050565b7f496e73756666696369656e742062616c616e6365000000000000000000000000600082015250565b600061046f601483610428565b915061047a82610439565b602082019050919050565b6000602082019050818103600083015261049e81610462565b9050919050565b7f4e487b7100000000000000000000000000000000000000000000000000000000600052601160045260246000fd5b60006104df8261039b565b91506104ea8361039b565b9250828203905081811115610502576105016104a5565b5b92915050565b7f4d7573742073656e6420457468657220746f206465706f736974000000000000600082015250565b600061053e601a83610428565b915061054982610508565b602082019050919050565b6000602082019050818103600083015261056d81610531565b9050919050565b600061057f8261039b565b915061058a8361039b565b92508282019050808211156105a2576105a16104a5565b5b9291505056fea2646970667358221220691ae29214e815193cf7867842710b9737048fc94a297010746415ec1e25fbe464736f6c63430008110033",
  "immutableReferences": {},
  "source": "// SPDX-License-Identifier: MIT\r\npragma solidity ^0.8.0;\r\n\r\ncontract Wallet {\r\n    mapping(address => uint256) public balances;\r\n\r\n    function deposit() public payable {\r\n        require(msg.value > 0, \"Must send Ether to deposit\");\r\n        balances[msg.sender] += msg.value;\r\n    }\r\n\r\n    function withdraw(uint256 amount) public {\r\n        require(balances[msg.sender] >= amount, \"Insufficient balance\");\r\n        balances[msg.sender] -= amount;\r\n        payable(msg.sender).transfer(amount);\r\n    }\r\n\r\n    function getBalance(address user) public view returns (uint256) {\r\n        return balances[user];\r\n    }\r\n}\r\n",
  "sourcePath": "C:\\Users\\Gabriel Almeida\\Documents\\PBL\\Bet-Distribuida\\contracts\\Wallet.sol",
  "compiler": {
    "name": "solc",
    "version": "0.8.17+commit.8df45f5f.Emscripten.clang"
  },
  "schemaVersion": "3.4.16",
  "updatedAt": "2024-12-09T00:23:39.744Z",
  "devdoc": {
    "kind": "dev",
    "methods": {},
    "version": 1
  },
  "userdoc": {
    "kind": "user",
    "methods": {},
    "version": 1
  }
}